:020000040800F2
:105000008007002045510008F56D0008F35F000897
:10501000FD660008755800080578000800000000CB
:105020000000000000000000000000001B710008EC
:105030007758000800000000716E00085D510008FC
:105040005F5100085F5100085F5100085F51000880
:105050005F5100085F5100085F5100085F51000870
:105060005F5100085F5100085F5100085F51000860
:105070005F5100085F5100085F5100085F51000850
:105080005F5100085F5100085F5100085F51000840
:105090005F5100085F5100085F5100085F51000830
:1050A0005F5100085F5100085F5100085F51000820
:1050B0005F51000895720008517300085F510008A5
:1050C0005F5100085F5100085F5100085F51000800
:1050D0005F510008C97400082D7500085F51000871
:1050E0005F5100085F5100085F5100085F510008E0
:1050F0005F5100085F5100085F5100085F510008D0
:105100005F5100085F5100085F5100085F510008BF
:105110005F5100085F5100085F5100085F510008AF
:105120005F5100085F5100085F5100085F5100089F
:10513000DFF80CD000F08CFB00480047A57E00088B
:10514000800700200648804706480047FEE7FEE744
:10515000FEE7FEE7FEE7FEE7FEE7FEE7FEE7FEE727
:10516000457200083151000840EA01039B0703D053
:1051700009E008C9121F08C0042AFAD203E011F896
:10518000013B00F8013B521EF9D27047421C10F857
:10519000011B0029FBD1801A704730B5044600205E
:1051A000034600E05B1C934203D2E05CCD5C401BF5
:1051B000F8D030BD80EA010210B502F00043400093
:1051C00022D04A001FD0010E01EB1261C0F356003D
:1051D000C2F3560240F4000042F40002A0FB022099
:1051E00000047F39140400D0401C50EA124001D45E
:1051F0004000491EC2B20C0604EBD010401C40080F
:10520000802A02D003E0002010BD20F00100002918
:1052100000DA0020184310BD2DE9FE4F804681EAD8
:105220000300C00F0C46009021F0004123F0004520
:10523000B8EB0200A94105D24046214690461C46E3
:105240000B46024623F00040104347D0270DC7F31A
:105250000A00C3F30A510290401A019040286BDA09
:10526000C3F3130040F4801B0098924620B1002342
:10527000D2EB030A63EB0B0B01985946C0F14002D5
:10528000504600F020FA06460D4650465946019A0F
:1052900000F038FA10EB08006141002487EA11524F
:1052A00084EAE7731A4340D0009A62B3019A012A54
:1052B0004FEA075215DC001B61EB02014FF0004280
:1052C00002EA0752CDE90042001C41F58011324646
:1052D0002B4600F06FFA03B0BDE8F08F4046214640
:1052E000F9E7001B61EB0201001C41F58013001877
:1052F0005B412018A2F5001747EB030140EAD57087
:10530000B6196D4111E06D084FEA360645EAC075E1
:105310004FEA0752001B61EB0201001C41F58011AE
:1053200049084FEA30000019514132462B4603B07C
:10533000BDE8F04F00F02FBA009801224000002392
:10534000D0EB020263EBE073009821464FEAE07471
:10535000B8EB000061EB0401E9E783F000435BE791
:1053600081F0004158E72DE9FE4F81EA030404F083
:10537000004421F0004100944FF0000B23F0004363
:1053800050EA01045ED052EA03045BD0C3F30A542E
:10539000C1F30A552C44A4F2F3340194A0FB025447
:1053A000C1F3130141F48011C3F3130343F48013D9
:1053B00001FB024400FB034E840A970A44EA81542D
:1053C00047EA8357A4FB076802958D0A05FB07850A
:1053D0004FEA932C04FB0C542705029D4FEA065814
:1053E00047EA1637B5EB08056EEB070C870E920EF1
:1053F00047EA811742EA8312A7FB0201B6EB0B01D1
:1054000064EB00042B0D43EA0C335E1844EB1C5094
:10541000DA465146E7FB0201C5F313044FEA0B33AA
:1054200043EA14534FEA0432019C43EA0603A4F111
:105430000C040294009CCDE900B400F0BBF903B069
:10544000BDE8F08F00200146F9E72DE9F04D81EA33
:10545000030404F0004B21F0004514464FF0000A0D
:1054600023F0004150EA050220D054EA01021DD089
:10547000C5F30A570246C5F31303C1F31300C1F382
:105480000A5640F4801543F48013A7EB0608101B5E
:10549000D64608F2FD3873EB050002D308F1010887
:1054A00001E092185B41B8F1000F03DA00200146D9
:1054B000BDE8F08D00204FF48011064684460EE0D2
:1054C000171B73EB050705D3121B63EB050306439C
:1054D0004CEA010C49084FEA300092185B4150EA4F
:1054E0000107EDD152EA030012D082EA040083EAF8
:1054F0000501084305D0101BAB4106D20122002351
:1055000006E000224FF0004302E06FF0010253106A
:105510001AEB06004CEB085110EB0A0041EB0B01B3
:10552000BDE8F04D00F037B970B521F000430343FA
:105530000CD0C1F30A550024D5EB040564EB040339
:10554000D617AD1AB34102DB0020014670BD20180A
:1055500041EB025170BD0EB5C10F80EAE070084406
:10556000CA07002140F233438DE80E000A460B467D
:1055700000F020F903B000BD0EB540F233410291B6
:105580000021CDE900110A460B4600F013F903B0E3
:1055900000BD3EB5CA17CB0F002450405140C01883
:1055A0006141DA0740F233430094CDE901232246FA
:1055B000234600F0FFF803B030BD20F00040C10DDD
:1055C000C0F3160040F400007F2901DA0020704784
:1055D000962903DCC1F19601C8407047963988408E
:1055E000704770B5C1F30A5201F000450024C1F3C1
:1055F000130140F2FF3341F480119A4202DA002095
:10560000014670BD40F233439A42A2F2334203DCBA
:10561000524200F067F801E000F055F82C43F0D05A
:105620000023D0EB030063EB010170BD01F00043E8
:1056300030B421F0004150EA010206D00A0DA2F573
:105640006072C1F31301002A02DC30BC00207047F5
:10565000440F44EAC104C100E01830BC00EBC25062
:1056600000F062B82DE9F05F0546002092469B46A7
:1056700088460646814640241BE028464146474668
:10568000224600F02FF853465A46C01A914110D3D3
:1056900011461846224600F016F82D1A67EB01084D
:1056A0004F4622460120002100F00DF817EB0009BB
:1056B0004E41201EA4F10104DFDC484631462A4653
:1056C0004346BDE8F09F202A04DB203A00FA02F1AD
:1056D000002070479140C2F1200320FA03F31943E0
:1056E00090407047202A04DB203A21FA02F0002182
:1056F000704721FA02F3D040C2F1200291400843E2
:1057000019467047202A06DBCB17203A41FA02F0EF
:1057100043EAE07306E041FA02F3D040C2F120020E
:1057200091400843194670470029A8BF7047401CA4
:10573000490008BF20F00100704710B4B0FA80FCA7
:1057400000FA0CF050EA010404BF10BC704749B1E4
:10575000CCF1200421FA04F411FA0CF118BF012154
:1057600021430843A3EB0C01CB1D4FEA00614FEA34
:10577000102042BF002010BC704700EBC350104403
:105780000029A4BF10BC7047401C490008BF20F08E
:10579000010010BC704710B5141E73F1000408DA44
:1057A000401C41F1000192185B411A4301D120F0E5
:1057B000010010BD2DE9F04D92469B4611B1B1FAA2
:1057C00081F202E0B0FA80F220329046FFF77BFFD0
:1057D00004460F4640EA0A0041EA0B0153465A4686
:1057E000084313D0114653EA010019D0C8F1400212
:1057F0005046FFF777FF05460E465046594642464B
:10580000FFF761FF084305D0012004E02046394638
:10581000BDE8F08D0020054346EAE0762C4337438F
:105820000A986305E40AA0EB08000022FD0A44EA96
:1058300047540A3002D500200146E9E70105101956
:105840006941DDE9084500196941BDE8F04DA2E76D
:10585000064C074D06E0E06840F0010394E80700BD
:1058600098471034AC42F6D3FFF766FC3484000846
:1058700054840008FEE7704770B505464FF43026A3
:10588000304600F097F8042811D1094C206940F007
:10589000020020616561206940F0400020613046CF
:1058A00000F088F8216941F6FD721140216170BD58
:1058B0000020024008490420CA68D20701D0012014
:1058C0007047CA68520701D502207047C968C906E7
:1058D000FBD5032070470000002002400248016908
:1058E00041F08001016170470020024004490A68CC
:1058F00022F010020A600A6802430A607047000042
:1059000000200240F0B506464FF400570D463846D9
:1059100000F050F804280CD1064C206940F001003A
:1059200020613580384600F045F82169BA1E1140E3
:105930002161F0BD002002402DE9F841064600201B
:105940004FF4005700900D46384600F033F8042815
:1059500016D10C4C206940F0010020613580B8461A
:10596000384600F027F8BF1E042806D1B61C280CC4
:1059700000963080404600F01DF8216939402161D1
:10598000BDE8F88100200240034A116801F03801A7
:1059900001431160704700000020024003480249A3
:1059A0004160034941607047230167450020024080
:1059B000AB89EFCD00B50346FFF77CFF02E0FFF7B0
:1059C00079FF5B1E012803D0002B00D1052000BD0C
:1059D000002BF4D1FAE770B505464FF6FF700023AF
:1059E0004AF201040EE0EA5C50400022C60702D0F1
:1059F00084EA500000E04008521C92B2082AF5D315
:105A00005B1C9BB28B42EED370BD000010B588B01A
:105A100005A8009006AB02AA03A904A800F07EF82E
:105A200098B113A001F024FF002003460246009025
:105A30004FF41651012000F051F9040015D016A0C2
:105A400001F016FF204608B010BDBDF91410BDF9D5
:105A50001800CDE90001BDF908309DF8101016A01E
:105A6000039A01F005FF0020EDE723A0E8E700001E
:105A7000466C61736820636F6E66696720696E7635
:105A8000616C69642C20736176696E672064656659
:105A900061756C74730D0A004661696C65642074ED
:105AA0006F20736176652064656661756C74206330
:105AB0006F6E6669670D0A00466C61736820636FDC
:105AC0006E666967206C6F616465643A20536C612F
:105AD00076653D3078253032582C20426175643D22
:105AE00025642C204F66667365743D25642F2564FC
:105AF0002F25640D0A00000044656661756C7420F2
:105B0000636F6E6669672073617665642073756381
:105B10006365737366756C6C790D0A002DE9FF4738
:105B20003F4C0E460746218ADDF83090A1F5B4407F
:105B30001D4690465C3801D03AA036E08DF8001042
:105B4000080A8DF8010020788DF8020060688DF851
:105B50000300010A8DF80410010C8DF80510000EE9
:105B60008DF8060020898DF80700000A8DF80800DE
:105B700060898DF80900000A8DF80A00A0898DF867
:105B80000B00000A8DF80C000D216846FFF723FF7B
:105B9000E28901468A4203D029A001F069FE2DE086
:105BA000217809B1F72903D931A001F061FE25E080
:105BB0006068B0F5165F08D0B0F5964F05D0B0F527
:105BC000E13F02D0014633A0EFE7B4F9080040F20C
:105BD000CF7200F2E73090420DD2B4F90A00354A94
:105BE000904208DD5342984205DAB4F90C00904225
:105BF00001DD984206DB30A001F03AFE012004B03E
:105C0000BDE8F0873970606830602189A8F800101D
:105C100060892880A189A9F800100020EFE7000022
:105C200000F80008466C617368206D616769632045
:105C30006572726F723A203078253034580D0A0040
:105C4000466C61736820435243206572726F723AEA
:105C50002063616C633D3078253034582C20737498
:105C60006F7265643D3078253034580D0A000000AD
:105C7000496E76616C69642073746F726564207319
:105C80006C61766520616464726573733A20256483
:105C90000D0A0000496E76616C69642073746F723E
:105CA00065642062617564726174653A2025640DD3
:105CB0000A00000018FCFFFF496E76616C696420E1
:105CC00073746F7265642063616C69627261746978
:105CD0006F6E206F66667365740D0A002DE9F047DC
:105CE0008AB0070012980D4601D0F72F02D9394625
:105CF0004AA009E0B5F5165F09D0B5F5964F06D074
:105D0000B5F5E13F03D04CA001F0B2FD7AE002F21C
:105D1000E73140F2CF74A14209D24D498B4206DDF2
:105D20004C42A34203DA884201DDA04201DB49A0D4
:105D300066E045F65C21ADF82010ADF81C000021AE
:105D4000ADF81E1005955C218DF800105A218DF8D4
:105D50000110ADF81820ADF81A30290A8DF804109A
:105D6000290C8DF80510290E8DF80610110A8DF8F2
:105D700008108DF80930190A8DF80A108DF80B00FB
:105D8000000A8DF802708DF80C008DF810708DF8F7
:105D900003508DF807200D216846FFF71CFEADF873
:105DA0001E00344CFFF7FAFD2046FFF765FD06465E
:105DB000FFF794FD042E01D0012000E0002008B17F
:105DC0002DA01DE0A0460DF1100A4FF00A09FFF7C3
:105DD000E5FD002408EB44003AF81410FFF792FDAB
:105DE0000646042803D1641CA4B24C45F2D3FFF745
:105DF00075FD042E01D0012000E0002030B124A068
:105E000001F036FD01200AB0BDE8F0872A46394688
:105E100025A001F02DFD0020F5E70000496E766118
:105E20006C696420736C617665206164647265736B
:105E3000733A2025640D0A00496E76616C6964200E
:105E400062617564726174653A2025640D0A000010
:105E500018FCFFFF496E76616C69642063616C69B0
:105E600062726174696F6E206F66667365740D0A85
:105E70000000000000F80008466C6173682065723D
:105E8000617365206661696C65640D0A000000003D
:105E9000466C617368207772697465206661696C0D
:105EA00065640D0A00000000436F6E666967207329
:105EB000617665643A20536C6176653D30782530B3
:105EC00032582C20426175643D25640D0A000000A3
:105ED000F0B5CC78002204F00F03E40601D58C78ED
:105EE00023430C784FF00F0C14F0FF0F4FF0010E0E
:105EF0001BD005680E880EFA02F42640A64210D187
:105F000096000CFA06F725EA070703FA06F5CE789D
:105F10003D43282E02D0482E02D002E0446100E02A
:105F20000461521C082AE5D305600A88FF2A1CD99F
:105F30004468002202F108060EFA06F50E882E408B
:105F4000AE420ED196000CFA06F7BC4303FA06F7F0
:105F5000CE783C43282E00D14561CE78482E00D122
:105F60000561521C082AE5D34460F0BD02460020BA
:105F700092680A4200D00120704741617047016178
:105F800070477CB5044600200090019000F096FF19
:105F90004FF48035284601F025F801F06BF80190A8
:105FA000012800D0FEE71020FFF7A0FC0220FFF739
:105FB000EBFC002001F00CF8002001F037F84FF462
:105FC000806001F029F82146284601F03FF80120C1
:105FD00001F036F8392000F0DBFF0028FAD002206B
:105FE00001F03EF801F0FAF800F0EAFF0828FBD1D2
:105FF0007CBDFEE702494CF6CC40086070470000CB
:106000000030004000F014B870B504460D4645F26B
:10601000555000F021F8204600F012F8284600F014
:1060200015F800F005F8BDE87040FFF7E3BF000089
:1060300002494AF6AA20086070470000003000407C
:106040000149486070470000003000400149886005
:1060500070470000003000400149086070470000B0
:10606000003000402DE9F047144E4FF40062002448
:106070003260012001F0B4FEDFF840A00025914617
:10608000AAF1100A371506F104086006040E3760FD
:1060900049465046FFF76AFF08B144F00104052065
:1060A00001F09EFEC8F80070052001F099FE6D1CFD
:1060B000EDB2082DE9D32046BDE8F087100C014071
:1060C0000A4900B50B1D4FF4006201280CD01A607C
:1060D0004FF480620A60052001F082FE1A600520FC
:1060E0005DF804EB01F07CBE0A60F1E7100C0140A2
:1060F000F0B50E4C4FF48067034627600022E5148C
:10610000261F180601D5356000E0256037600520A0
:1061100001F066FE2760052001F062FE5806521C61
:10612000030ED2B2082AECD3F0BD0000140C0140DB
:106130002DE9F041144B4FF400673A461F600520EB
:1061400001F04EFE7C101C60052001F049FE0E4E51
:106150001146103E3046FFF709FF00280CD00A4DCB
:106160003A462D1D2F60052001F03AFE11463046BB
:10617000FFF7FCFE10B10020BDE8F0812C60052087
:1061800001F02EFE0120F7E7100C0140084810B581
:106190004FF40063036002150260052001F020FE49
:1061A000034C241F2260052001F01AFE236010BD5D
:1061B000140C01402DE9F04115484FF40061002412
:1061C000016005150560124F4FF4FA76103F8846BE
:1061D00003E0641CA4B2B44205D041463846FFF740
:1061E000C5FE0028F5D141463846FFF7BFFE084AF4
:1061F000121D18B115600020BDE8F081052001F0E6
:10620000EFFD1560052001F0EBFD0120F4E7000033
:10621000100C014008B50121082000F043FE4FF4A6
:106220004060ADF8000001208DF8020014208DF8C8
:10623000030069460548FFF74BFE04484FF48061B0
:1062400010300160C114016008BD0000000C014065
:106250002DE9F04FFE4C89B04FF00009207832282C
:1062600003D384F8019084F80090DFF8E883627823
:106270000225B8F80000F84F4FF0010A4EF66021F1
:106280000B2A16D2DFE802F0061C24364A626A8E18
:10629000AEB6D3001E21EC2001F0D0FA50B1FE21A1
:1062A000802001F0CBFA28B184F801A0B8F80000F2
:1062B000606019E22078401C207084F8019026E18B
:1062C0006268801A00D508440528F2DB65700BE28D
:1062D000E14800F0E5FE48B13888060BDE4801F0E1
:1062E00055FDB04201D103202EE065702078401C9E
:1062F0002070F9E1A078042530B95A21EC2001F092
:106300009DFA0028F2D06570A078012806D14A21B4
:10631000EC2001F093FA0028E8D06570FFF708FF41
:1063200000287CD0EC20FFF7E3FEFFF743FF0028B6
:10633000F7D00020FFF7DCFEFFF73CFF0028F0D08D
:10634000B8F80000606005206070CDE16268801AD6
:1063500000D508441428ACDB0620F5E70026FFF73B
:10636000E7FE0028DDD0ED20FFF7C2FEFFF722FF99
:10637000002854D00025FFF775FE06440020FFF7E3
:106380009FFE6D1C3602EDB2022DF4D3FFF76AFEBC
:1063900085190120FFF794FEFFF7F8FEA078C0B141
:1063A00001281AD0FFF7C4FE002838D08020FFF75C
:1063B0009FFEFFF7FFFE002831D0E520FFF798FE93
:1063C000FFF7F8FE00282AD0B8F800006060082027
:1063D000BAE784F802A03D6185E784F802900720BF
:1063E0007D61B1E76268801A00D508441428ACDBEF
:1063F0000920A9E7FFF79CFE88B18120FFF778FE0E
:10640000FFF7D8FE58B1FFF72DFE05460020FFF735
:1064100057FE2D02FFF726FE0544012000E071E043
:10642000FFF74EFEFFF7B2FE3D830A206070DFF8F3
:1064300028820023B8F80A10D8F810200D0E09029F
:10644000511AB8F80C2063EB0500A2FB015603FBC0
:10645000016602FB0062ED0D45EA4225D2154FF4BC
:10646000FA6615EB060942F1000AB8F80420D50BCC
:106470005604B8F80820A2FB017C03FB01CC02FB08
:1064800000C2BF0947EA8267F61945EBA215CDE9BC
:106490000665B8F802504FEA15424FEA0546B8F8CB
:1064A0000650A5FB017C03FB01C305FB00334FEA4B
:1064B000D71545EA4365751942EBE312CDE904525D
:1064C0004FF4FA63B9EB03034D467AF1000222DB85
:1064D000A1FB012300FB013301FB00310520A2FBDE
:1064E000006501FB0050002302FB03018811C9175E
:1064F000FFF74FF8CDE900010020834605468046AE
:1065000002907AE0FFF742FE2078401C20700020C5
:1065100009B0BDE8F08F2B46504D5D19A1FB01235A
:1065200000FB013301FB00330320A2FB00C703FB88
:106530000070002102FB01014AF1FF364810C91723
:10654000FFF727F8CDE90001A5FB057006FB050064
:1065500005FB06053D20A7FB002305FB00300021BD
:1065600007FB0101100940EA01700911FFF711F85A
:1065700083461D20A7FB0023029105FB003000216C
:1065800007FB0101100940EA01700911FFF701F84A
:10659000334A0546B9EB020088467AF1FF302CDA1F
:1065A000524219EB0201A1FB01724AF1000000FB0B
:1065B000012201FB00261120A7FB002306FB00306F
:1065C000002107FB01011046FEF7E3FF5A46029B3C
:1065D000FEF722FE83460920A7FB0023029106FB5B
:1065E0000030002107FB01011046FEF7D2FF2A46CA
:1065F0004346FEF711FE0546884648465146FEF7DB
:10660000C8FFDDE90023FEF7A8FEFEF7EAFF824699
:106610000091DDE90601FEF7BCFF5A46029BFEF73A
:106620009CFEFEF7DEFF83468946DDE90401FEF7A6
:10663000B0FF2A464346FEF790FEFEF7D2FF064D16
:1066400000266A69A2FB003706FB00700AE0000022
:1066500018000020140000208C02002030F8FFFFFA
:1066600024FAFFFF02FB01005B0D43EAC023421541
:10667000B3EB0B0062EB0902C70B47EA42475046F7
:106680000099FEF786FFDFF8648000224346FEF79C
:10669000DCFEFEF7CBFFE8613846FEF75CFF002228
:1066A0004346FEF7D2FEFEF7C1FF6862288BFEF775
:1066B00063FF00220E4BFEF756FE6FF00F02FEF74F
:1066C00033FF00220B4BFEF748FEFEF7AFFF2862B8
:1066D00010F1FF4F01D32E6203E00749884200DD2D
:1066E0002962032060702670012011E700005940E4
:1066F00000405F40000018400000C842FEE7000074
:1067000070B5094DFF22134605F5807605E010F8B7
:10671000014B54402A5D5A40335D491E89B2F6D27E
:1067200043EA022070BD00003482000870B51E4D9F
:1067300095F8690000282FD095F8671000240829E3
:1067400026D3891E89B2A81CFFF7DAFF95F86710D7
:106750006A1C8A5C695C02EB012189B288421FD104
:10676000A878297888420FD1E978032901D0062931
:106770000ED1032902D0062912D102E000F02CF834
:106780000EE000F0A5F80BE050B9E978062904D036
:1067900085F8694085F8674070BD04A001F068F88D
:1067A00005F8674FAC7070BD400000204D6F64620B
:1067B00075732062726F61646361737420726563C4
:1067C00065697665642C2066756E6374696F6E3DCD
:1067D00025640D0A000000002DE9F0413A4D68796A
:1067E0002979AA7900EB012081B2E87900EB022037
:1067F00095F8672080B2082A06D128B1802903D2F3
:10680000C1F18001814201DA022102E02F2805D97D
:106810000321BDE8F041032000F02CBA00F084FF12
:1068200000F0A0FF68792979032400EB012086B2EB
:10683000E879A97900EB012083B22878224985F80C
:106840006A00032081F86B00580081F86C0000207A
:1068500001F5A67710E0311805EB040C37F811208C
:10686000641C110A8CF86A10E1B26C18491C84F897
:106870006A20401CCCB2C0B29842ECD312482146E8
:106880006A30FFF73DFF2A19010A82F86A10641C7A
:10689000E1B26A18491C0D4F82F86A00CEB2042199
:1068A0003846FFF76CFB002406E0281990F86A00D0
:1068B00000F0CCF9641CE4B2B442F6D33846BDE82B
:1068C000F0410421FFF759BB40000020000C0140BB
:1068D0002DE9F84F664F7879397900EB012085B2C0
:1068E000F879B9790F2D00EB012084B201D0802D09
:1068F00005D3BDE8F84F0221062000F0BBB9DFF850
:10690000748106215A4A28F81540387887F86A00B9
:10691000574804F0FF0980F86B10280A82F86C00D1
:10692000104680F86D50200A82F86E0082F86F9051
:1069300002F16A00FFF7E4FE4D4A010ADFF838B1C0
:1069400082F8701011464FF0080A81F87100042196
:106950005846FFF714FB0026B81990F86A0000F0BB
:1069600075F9761CB6B25645F6D3642001F05EFA8E
:1069700004215846FFF701FB40F2CE71142D13D0CD
:10698000152D1ED0162D2CD0172D3AD0182D4DD0E8
:10699000112D24D1A4F59050343820D1FFF748FBB5
:1069A000BDE8F84F01F032BB22B202F2E730884274
:1069B00015D8A8F82820B8F92C100091B8F92A3079
:1069C00008E020B200F2E7328A4208D84146A8F82F
:1069D0002A000EE03878D7F8D01000F0E9F8BDE8CA
:1069E000F88F20B200F2E7328A42F8D84146A8F880
:1069F0002C00B1F92C000090B1F92A30B8F9282008
:106A0000E8E7002CEBD0F72CE9D887F8009087F85E
:106A10000190B8F92C100091B8F92A30B8F9282063
:106A20004846D7F8D01000F0C3F81CE04FF41655D4
:106A30004CB1012C02D0022C03D004E04FF4964557
:106A400001E04FF4E135C7F8D050B8F92C100091AF
:106A5000B8F92A30B8F928203878294600F0A8F883
:106A6000284600F0A1F9BDE8F84F642001F0DEB936
:106A7000400000208C010020000C01402DE9F04175
:106A800086B005A8009004AB03AA02A901A8FFF7ED
:106A900045F8334900274FF416546200A1F5A67655
:106AA0004FF4E13340B1012030707070C6F8D0402F
:106AB0000F854F858F8517E09DF80400307070704A
:106AC0000298C6F8D000BDF80C500D85BDF81050E6
:106AD0004D85BDF814508D85904201D1012504E00B
:106AE000984201D1022500E000253DB1012D02D0E0
:106AF000022D02D002E0144600E01C46C6F8D04049
:106B00000D864EF6A020C883337873701448CB8569
:106B100014A23221643800F0BBFE1148643800F042
:106B200073FE4FF4FA78404601F080F90C482B468A
:106B300013A23221323800F0ABFE0948323800F09F
:106B400063FE404601F072F9204600F0BFF8642071
:106B500001F06CF986F8687006B0BDE8F0810000BD
:106B60008C0100204D6F6462757320736C617665D3
:106B700020616464726573733A2025640D0A000015
:106B80004261756420696E6465783A202564202826
:106B9000303D393630302C20313D31393230302CD7
:106BA00020323D313135323030290D0A00000000ED
:106BB0002DE9FC41089C1D46174688460646009470
:106BC000FFF78CF820B1BDE8FC410BA000F050BEEF
:106BD0000F483B46424606704670C0F8D08000F52C
:106BE000A6703146078545858485CDE9005409A006
:106BF00000F03EFEBDE8FC814661696C656420746E
:106C00006F207361766520636F6E6669670D0A0099
:106C100040000020436F6E6669672073617665648B
:106C20003A20536C6176653D3078253032582C20FF
:106C3000426175643D25642C204F66667365743D22
:106C400025642F25642F25640D0A000010B5084C1B
:106C50000146204600F046FD4021204600F0A9FCF8
:106C60000028F9D02046BDE81040402100F094BC37
:106C70000044004070B5134D40F0800015F84F2BD4
:106C8000EA7628770F48697703216A30FFF738FDE5
:106C9000010AA977E8770C4E042130464F3DFFF7F3
:106CA0006EF90024281990F86A00FFF7CFFF641CE2
:106CB000E4B2052CF6D33046BDE870400421FFF75E
:106CC0005CB9000040000020000C01402DE9F041BB
:106CD000012180464E0486B0304600F0CBF80121F9
:106CE0000C2000F0DFF80424ADF8004010208DF8EF
:106CF00003000320294D8DF8020069462846FFF75E
:106D0000E7F8ADF800401820254F8DF803006946DC
:106D10003846FFF7DDF80820ADF800008DF8034095
:106D200069463846FFF7D4F80121304600F0AEF846
:106D30000021304600F0AAF80021ADF80C10ADF8A3
:106D400008100C20174CADF80A10ADF81010ADF873
:106D50000E00CDF8048001A9204600F069FC262031
:106D60008DF8140002208DF8150001218DF8161001
:106D70008DF8171005A800F03FF8012240F22551C8
:106D8000204600F03CFC0121204600F008FC0421D4
:106D90002846FFF7F2F806B0BDE8F081000C01408C
:106DA00000080140004400407FB5104D044600211A
:106DB000284600F0F4FB0020ADF80400ADF8060012
:106DC000ADF80800ADF80C000C20ADF80A000094F6
:106DD0006946284600F02CFC0121284600F0DFFB24
:106DE00004210348FFF7C9F87FBD000000440040BC
:106DF000000C01407047000030B50F23C2780178C5
:106E00000125F2B1144A126801F1E02102F4E062B6
:106E1000C2F5E062120AC2F10404D3404278A240F3
:106E200084781C401443220181F80024007800F08B
:106E30001F018D404009800000F1E020C0F80051A2
:106E400030BD01F01F0085404809800000F1E020BE
:106E5000C0F8805130BD00000CED00E0024908434D
:106E600002490860704700000000FA050CED00E0E0
:106E700070470000044A0029D16901D0014300E0B5
:106E80008143D1617047000000100240044A00298C
:106E9000116901D0014300E0814311617047000096
:106EA00000100240044A0029916901D0014300E02A
:106EB0008143916170470000001002400C48016856
:106EC00041F00101016041680A4A114041600168D6
:106ED000094A11400160016821F480210160416884
:106EE00021F4FE0141604FF41F01816070470000F2
:106EF000001002400000FFF8FFFFF6FE30B5204A08
:106F00005168204B11F00C0103D0042901D008294D
:106F100001D0036012E05168536801F470114FF022
:106F2000020413F4803F04EB914102D053689B03A9
:106F300001D5154B00E0134B5943016051680F23F5
:106F400003EA1111114B5C5C0168E1404160546837
:106F5000072505EA14241C5D21FA04F484605468B2
:106F600005EAD4241B5DD940C1605268032303EABB
:106F70009232064B1B1F9A5CB1FBF2F1016130BDEE
:106F80000010024000127A0000093D00300000208D
:106F9000034600205909094A01290AD002290AD0CA
:106FA000516A03F01F02012393400B4200D00120DD
:106FB00070471168F5E7116AF3E70000001002401E
:106FC0000248406800F00C007047000000100240CA
:106FD000034A516821F0F0010143516070470000FD
:106FE000001002400B490A6822F480320A600A68E5
:106FF00022F480220A60B0F5803F07D0B0F5802FE0
:1070000003D1086840F4A02008607047086840F485
:107010008030F9E700100240034A516821F4E06132
:10702000014351607047000000100240034A51685C
:1070300021F4605141EAC0005060704700100240E6
:10704000014908667047000000004242034B5A683D
:10705000084322F47C12104358607047001002402D
:10706000034A516821F00301014351607047000059
:107070000010024018B500204FF6FF740090312038
:10708000FFF786FF0099491C0091A14201D000281A
:10709000F5D03120FFF77CFF002800D0012018BD7B
:1070A0002DE9F04180460024A025FFF741F878B390
:1070B000EC20FFF71DF8FFF77DF848B32846FFF7EF
:1070C00017F8FFF777F818B3FFF732F800B3ED20A1
:1070D000FFF70EF8FFF76EF8D0B1FEF7C3FF0646D4
:1070E0000020FEF7EDFFFEF7BDFF07460120FEF78B
:1070F000E7FF07EB062028F81400AD1C641CE4B27F
:10710000EDB2072CD1D3FFF741F80120BDE8F081A3
:10711000FFE7FFF73BF80020F8E770470CB50023C6
:10712000264800930193016841F4803101604FF6D5
:10713000FF71026802F400320192009A521C009220
:10714000019A12B9009A8A42F3D10168890333D5B2
:10715000012101911A490A6842F010020A600A6886
:1071600022F003020A600A6842F002020A604168E3
:10717000416041684160416841F48061416041681B
:1071800021F47C114160416841F4E81141600168DB
:1071900041F08071016001688901FCD5416821F0EE
:1071A00003014160416841F0020141604168C1F35F
:1071B00081010229FAD10CBD01930CBD00100240DF
:1071C000002002404FF0E0210428086903D020F09D
:1071D00004000861704740F00400FAE7154A10B552
:1071E0005068154B10F00C01144803D0042901D04D
:1071F000082901D0036012E05168536801F470114E
:107200004FF0020413F4803F04EB914102D0536825
:107210009B0301D50A4B00E0074B594301605168BD
:10722000064AC1F30311121D515C0268CA40026094
:1072300010BD00000010024000127A000000002083
:1072400000093D000F4810B5016841F001010160DF
:1072500041680D4A1140416001680C4A11400160CB
:10726000016821F480210160416821F4FE01416040
:107270004FF41F018160FFF751FF05494FF0006097
:10728000086010BD001002400000FFF8FFFFF6FE8E
:1072900008ED00E010B5144C0121204600F0B1F8D3
:1072A00000281FD00121204600F09EF80F4901223E
:1072B00091F8680060B191F86600401CC0B281F896
:1072C00066000C2804D3002081F8680081F869204A
:1072D000D1F8E000401CC1F8E000B0F57A7F01DD94
:1072E00081F8E42010BD00000004004040000020B0
:1072F0007FB50D46044601210220FFF7BBFDADF826
:1073000004400020ADF80050104CADF80200ADF87C
:1073100006006946204600F089F801221146204601
:1073200000F07BF80121204600F061F81D208DF867
:107330000C0002208DF80D0003208DF80E000120B6
:107340008DF80F0003A8FFF757FD7FBD0004004034
:1073500010B50B4C0121204600F053F800280ED048
:107360000121204600F040F806494EF660220888C8
:10737000401C80B20880904201D30020088010BDDC
:1073800000080040140000207FB50C46054601218E
:107390000420FFF76FFDADF800400020ADF8045069
:1073A000104CADF80200ADF806006946204600F02A
:1073B0003DF801221146204600F02FF80121204619
:1073C00000F015F81E208DF80C0002208DF80D003D
:1073D00003208DF80E0001208DF80F0003A8FFF7A1
:1073E0000BFD7FBD00080040C943018270470029A2
:1073F000018802D041F0010101E021F0010101808A
:10740000704702460020138A92890B4202EA010269
:1074100002D0002A00D001207047002A828901D0C2
:107420000A4300E08A4382817047000030B5028839
:107430001B4C1C4DA0420DD0A8420BD0B0F1804F88
:1074400008D0194B984205D0184B984202D0184BDF
:10745000984203D122F070034A881A43154B984290
:1074600006D0154B984203D022F44073CA881A43C1
:1074700002808A8882850A880285A0420AD0A842B2
:1074800008D00E4A904205D00D4A904202D00D4AD3
:10749000904201D1097A01860121818230BD00002C
:1074A000002C01400034014000040040000800406E
:1074B000000C00400010004000140040004001405B
:1074C000004401400048014070B5154C40F2255180
:1074D000204600F075F800280ED0204600F0FEF897
:1074E000104AC1B21088030406D444044FF00003CC
:1074F00006D50A2901D0138070BD40F400400DE08C
:107500000D2909D0C0F30D04074D401C80B2295548
:107510001080C728EFD870BD40F48040108070BD47
:107520000038014024000020B402002010B5184C9F
:1075300040F22551204600F043F8012811D12046A1
:1075400000F0CCF8134AC0B292F86910012908D0B3
:1075500092F86710002329B1642908D302F8673F25
:10756000537010BD5478844201D00028F9D1094CE1
:10757000A41C085592F86700401CC0B282F867004E
:1075800082F866300128ECD182F8680010BD000056
:107590000044004040000020C9430180704700299A
:1075A000818902D041F4005101E021F40051818130
:1075B00070470246002012880A4200D0012070471E
:1075C00070B501F01F0501260024C1F3421306FA2D
:1075D00005F2012B0FD0022B0FD0838A4FEA112125
:1075E0000088134206FA01F600EA060001D000B155
:1075F0000124204670BD8389F0E7038AEEE710B5C9
:10760000C1F3421301F01F040121A140012B07D057
:10761000022B07D01430002A026805D00A4304E088
:107620000C30F8E71030F6E78A43026010BD000026
:1076300030B50446008A85B00D464CF6FF7108400F
:10764000E98801432182A0894EF6F3110840A988F8
:107650002A8911436A8902431143A181A08A4FF606
:10766000FF410840A9890143A1826846FFF746FC13
:107670001948844201D1039800E00298A1890904C5
:1076800000EBC00101EB0010296801D5490000E0C2
:107690008900B0FBF1F06422B0FBF2F109010B09A3
:1076A0006FF018056B4300EB8300A3891D044FF0B6
:1076B000320306D503EBC000B0FBF2F000F0070088
:1076C00005E003EB0010B0FBF2F000F00F00084300
:1076D000208105B030BD0000003801408088C0F333
:1076E00008007047C1F30801818070472DE9F0411F
:1076F00017460D46064600240BE040213846FFF7AA
:1077000058FF0028F9D0315D3846FFF7EBFF641CC5
:10771000A4B2AC42F1D340213846FFF74AFF00281B
:10772000F9D00020BDE8F08100B587B003A8009033
:1077300002AB01AA05A904A8FEF7F0F9084928B18F
:10774000002008854885888507B000BDBDF8040085
:107750000885BDF808004885BDF80C00F3E7000077
:107760008C01002070B5244D244E3146E869FDF7A8
:1077700021FDFDF722FF224C218D08442080314657
:10778000286AFDF717FDFDF718FF618D084460803A
:107790003146686AFDF70EFDFDF70FFFA18D084425
:1077A000A0802869010C6181A0816869010CE181D8
:1077B000208268886082A888A082E888E082288980
:1077C000208368896083A889A083A4F5A6700178C6
:1077D000E185D0F8D0000021B0F5165F05D0B0F5F6
:1077E000964F04D0B0F5E13F03D0218670BD012053
:1077F00000E00220208670BD8C02002000002041A5
:107800008C010020FEE7000070B50546FDF7BEFCC8
:10781000084E84B204213046FEF7B1FB064A2146E9
:107820002846FFF763FF3046BDE870400421FEF7AD
:10783000A4BB0000000C01400044004070B50C46A1
:107840000546FEF775FC78B12846FEF751FCFEF7B9
:10785000B1FC48B12046FEF74BFCFEF7ABFC18B17B
:10786000FEF794FC012070BDFEF790FC002070BD77
:107870000FB4054B10B503A9044A029800F030F884
:1078800010BC5DF814FB0000617E00082800002099
:107890000FB41CB50246002007AC00290BD0491ECE
:1078A000CDE90021054B6A462146069800F018F8FC
:1078B000009A002111701CBC5DF814FB437D000888
:1078C00002E008C8121F08C1002AFAD170477047A9
:1078D000002001E001C1121F002AFBD17047000007
:1078E0002DE9FF4F8DB00F460546002606E02528FE
:1078F0000BD0DDE90F1290476D1C761C287800280C
:10790000F5D111B03046BDE8F08F0024A246A14663
:107910000122EC4900E0044315F8013F203B02FA44
:1079200003F00842F7D128782A2810D06FF02F02F0
:107930002878A0F13001092914D80AEB8A0102EB5A
:10794000410144F0020400EB010A6D1CF0E701CF95
:107950005FEA000A03D544F40054CAF1000A44F077
:1079600002046D1C28782E2817D115F8010F44F059
:1079700004042A280ED06FF02F022878A0F13001DD
:1079800009290AD809EB890102EB410100EB010941
:107990006D1CF2E757F8049B6D1C28786C280FD0FB
:1079A00006DC4C2817D068280DD06A2814D104E0D2
:1079B000742810D07A280FD10DE044F400140AE0A6
:1079C00044F4801401E044F440146978814202D107
:1079D00004F580146D1C6D1C2A786E2A1FD00CDCF7
:1079E000632A31D004DC002A8BD0582A11D1A3E0BD
:1079F000642A68D0692A0CD165E0732A2ED004DC91
:107A00006F2A73D0702A04D19BE0752A6FD0782A30
:107A10006ED01046DDE90F129047761C50E1C4F39A
:107A20000250022806D0032809D0042801CF09D02B
:107A3000066045E101CFF117C0E9006140E101CFE7
:107A400006803DE106703BE117F8040B8DF800005D
:107A500000208DF80100EB46012003E057F804BB3D
:107A60004FF0FF3061074FF0000102D40DE008F144
:107A70000101884649450FDA8045F8DB1BF80810FC
:107A80000029F4D108E008F1010188468142FADBBF
:107A90001BF808100029F6D1DDE90F23AAEB080036
:107AA0008146214600F036F9304400EB080604E038
:107AB000DDE90F121BF8010B9047B8F10108F7D26E
:107AC00021464846F7E00A21C4F302534FF0000B69
:107AD0000891022B04D001CFC117032B09D00AE073
:107AE000FF1D27F00707F7E8020108E032E01FE07A
:107AF00020E000B2C117042B01D140B2C117031E10
:107B000071F1000307DA4FF0000CD0EB0C006CEBC6
:107B100001012D2302E0230504D52B238DF8243009
:107B2000012303E0E30701D02023F7E7984658E05C
:107B30000A2110E010210EE010204FF0000B0890F9
:107B40000CE010214FF0000B44F004044FF0080942
:107B5000089103E008214FF0000B0891C4F3025391
:107B6000022B04D001CF0021032B06D006E0FF1D1D
:107B700027F00707F7E8020103E080B2042B00D1E9
:107B8000C0B24FF0000823072BD5702A07D0DDF8CC
:107B900020C08CF0100C5CEA0B0C05D00EE04023EA
:107BA0008DF82430012308E050EA010306D0302389
:107BB0008DF824308DF8252002239846DDF820C06A
:107BC0008CF0080C5CEA0B0C0BD150EA010301D1DC
:107BD000630706D530238DF824304FF00108A9F152
:107BE0000109582A04D038A20B9208AA0A920BE085
:107BF0003AA2F9E75B46089AFDF734FD0B9B9B5CC4
:107C00000A9A521E0A92137050EA0102F2D10A989F
:107C1000ADEB000000F1200B600702D524F48034A6
:107C200001E04FF00109D94502DDA9EB0B0000E0AE
:107C3000002000EB0B0141440890AAEB010AE0038D
:107C400006D4DDE90F232146504600F063F80644D0
:107C50004FF0000908E009A911F80900DDE90F1249
:107C6000904709F10109761CC145F4DBE0030CD50E
:107C7000DDE90F232146504600F04CF8064404E0AD
:107C8000DDE90F1230209047761C0899481E0890B5
:107C90000029F5DC08E00A980A990078491C0A9145
:107CA000DDE90F129047761CBBF10001ABF1010B2F
:107CB000F1DC21465046DDE90F2300F019F80644B7
:107CC0006D1C1BE60928010030313233343536375C
:107CD0003839616263646566000000003031323318
:107CE00034353637383941424344454600000000B8
:107CF0002DE9F041044600251E461746880404D4A9
:107D000005E039462020B0476D1C641EF9D5284691
:107D1000BDE8F0812DE9F041044600251E4690465D
:107D2000C80301D5302700E02027880404D505E0EA
:107D300041463846B0476D1C641EF9D52846BDE85B
:107D4000F0814A68002A06D00A68531C0B60107044
:107D50004868401E4860704770B54FF0FF320024FD
:107D6000094D0DE0035D5A400023D60702D085EA95
:107D7000520200E052085B1CDBB2082BF5D3641CF6
:107D80008C42EFD3D04370BD2083B8ED70B502882C
:107D90000021C2F30B020280104DC1810A464FF44C
:107DA000405402EA0503012B22F0010308D0C35A14
:107DB00081EA132108230E0405D584EA410103E07A
:107DC000C35C5940F6E749005B1E13F0FF03F2D194
:107DD000521C102AE5DBC1F3033070BD01000080A6
:107DE00000EB80008006000E401EC0B2FCD270473F
:107DF00010B56FF00400FFF7E5F90948094900687C
:107E0000B0FBF1F00849C0B200EB40020870C2EBD1
:107E1000C0104FF6FF7202EAC000488010BD00009B
:107E200000000020404B4C00200000200B494988F6
:107E300048434FF0E021486100238B61086940F01E
:107E4000010008610869C20701D0C003FAD50869BA
:107E500020F0010008618B617047000020000020C5
:107E600004490A885206FCD5024AC1B2121D11808B
:107E7000704700000038014000B589B0684600F046
:107E80005FF800280AD006490298884206D1001FF0
:107E9000029000200790684600F024F909B000BD68
:107EA0000524571322492148086062B64FF4002088
:107EB000FEF767F8FFF79CFFFEF7ACF94FF4E130EF
:107EC00000F0C0F8FDF7A2FD40F628110620FEF7ED
:107ED0009BF84FF4FA70FFF7A9FF4FF4A060FEF78C
:107EE000BDFF4FF41650FEF7F1FE40F2E7341F21BC
:107EF0002046FFF7FDF91F212046FFF745FA0DA0A8
:107F0000FFF782FC6420FFF791FFFEF7B7FDFFF754
:107F1000B3FFFEF777F8FEF79BF9FEF773F8FEF76D
:107F200005FC3220FFF782FFF3E700000050000855
:107F300008ED00E06170702056362E340D0A000006
:107F400030B593B0054601A90F4800F021F804466A
:107F50000AA90E4800F01CF854EA000109D02CB11F
:107F600050B102990B98401A002805DD24220AA975
:107F700004E0002013B030BD242201A92846FDF7FB
:107F8000F3F80120F6E70000004000080044000874
:107F900010B50C0020D0014624222046FDF7E4F85D
:107FA0000E492068884217D1A06800F019F898B1EE
:107FB000E16845F2FC3081420ED8616981420BD8FC
:107FC000E069032808D820212046FFF7C5FE216A72
:107FD000884201D1012010BD002010BD4154454D03
:107FE000094988420BD0491C884208D0491C884264
:107FF00005D0491C884202D0491C884201D1012089
:1080000070470020704700000124571310B5FEF799
:108010000FF800F0CDF800280FD0FEF709F80A207D
:10802000FFF704FF72B605480168054A01F4E061F4
:1080300011430160BFF34F8FFEE710BD0CED00E070
:108040000400FA0570B5054686B0012144F204002B
:10805000FEF728FF4FF40070ADF8100003248DF8F0
:10806000124018201D4E8DF8130004A93046FDF76C
:108070002FFF3015ADF8100004208DF8130004A96F
:108080003046FDF725FF25208DF814008DF81540AA
:108090008DF8164001208DF8170005A8FEF7ACFEFC
:1080A0000020ADF80400ADF80600ADF80800ADF80A
:1080B0000C000C200A4CADF80A00009569462046D9
:1080C000FFF7B6FA012240F225512046FFF797FA52
:1080D00001212046FFF763FA06B070BD0008014099
:1080E00000380140F0B59BB0060056D0B068FFF7ED
:1080F00077FF002851D02B4D09A92846FFF748FFEC
:10810000294F044612A93846FFF742FF54EA0001FE
:1081100008D02CB158B10A991398401A002803DDF1
:10812000139806E0012005E03D46481C02E00A984D
:108130003D46401C1D49C6E9001020213046FFF78E
:108140000BFE3062FDF774FF72B6FDF727FC284680
:10815000FDF792FB042803D0FDF7C0FB62B61CE0DC
:10816000002405EB840056F82410FDF7E5FB0428F5
:10817000F2D1FDF75DFF641C092CF2D3FDF7AEFBD5
:1081800062B669462846FFF703FF002806D024227E
:1081900031466846FDF701F810B100201BB0F0BD74
:1081A0000120FBE700400008004400084154454D11
:1081B000F0B58DB06846FFF7C3FE002138B119480D
:1081C000079102906846FFF78DFF0DB0F0BD16488D
:1081D00009901648CDE90A0109A80C21FFF7BCFD5A
:1081E0000C9072B6FDF7DAFB114E3046FDF744FBFA
:1081F000054604280DD1002409AF06EB840057F88A
:108200002410FDF799FB0546042802D1641C042CB8
:10821000F3D3FDF763FB62B6042D01D00020D4E751
:108220000120D2E7022457135AA5A55A0255AA5590
:108230000040000800C1814001C0804101C0804170
:1082400000C1814001C0804100C1814000C1814026
:1082500001C0804101C0804100C1814000C1814016
:1082600001C0804100C1814001C0804101C0804106
:1082700000C1814001C0804100C1814000C18140F6
:1082800001C0804100C1814001C0804101C08041E6
:1082900000C1814000C1814001C0804101C08041D6
:1082A00000C1814001C0804100C1814000C18140C6
:1082B00001C0804101C0804100C1814000C18140B6
:1082C00001C0804100C1814001C0804101C08041A6
:1082D00000C1814000C1814001C0804101C0804196
:1082E00000C1814001C0804100C1814000C1814086
:1082F00001C0804100C1814001C0804101C0804176
:1083000000C1814001C0804100C1814000C1814065
:1083100001C0804101C0804100C1814000C1814055
:1083200001C0804100C1814001C0804101C0804145
:1083300000C1814000C0C101C30302C2C60607C715
:1083400005C5C404CC0C0DCD0FCFCE0E0ACACB0B85
:10835000C90908C8D81819D91BDBDA1A1EDEDF1FB5
:10836000DD1D1CDC14D4D515D71716D6D21213D3A5
:1083700011D1D010F03031F133F3F23236F6F73755
:10838000F53534F43CFCFD3DFF3F3EFEFA3A3BFB45
:1083900039F9F83828E8E929EB2B2AEAEE2E2FEFF5
:1083A0002DEDEC2CE42425E527E7E62622E2E32365
:1083B000E12120E0A06061A163A3A26266A6A76795
:1083C000A56564A46CACAD6DAF6F6EAEAA6A6BAB05
:1083D00069A9A86878B8B979BB7B7ABABE7E7FBF35
:1083E0007DBDBC7CB47475B577B7B67672B2B37325
:1083F000B17170B0509091519353529296565797D5
:10840000559594549C5C5D9D5F9F9E5E5A9A9B5BC4
:1084100099595898884849894B8B8A4A4E8E8F4F74
:108420008D4D4C8C448485458747468682424383E4
:10843000418180405484000800000020400000007A
:10844000C078000894840008400000204007000025
:10845000D078000800A24A040000000000000000DC
:1084600001020304060708090000000000000000E4
:1084700000000000000000000000000000000000FC
:1084800002040608000000000102030401020304C4
:0484900006070809CA
:04000005080051316D
:00000001FF
