:020000040800F2
:1000000088140020ED0100088B0700088307000812
:100010008707000831040008B31200080000000040
:100020000000000000000000000000000D0C0008AF
:100030003504000800000000FD070008210D00083D
:10004000070200080702000807020008070200086C
:10005000070200080702000807020008070200085C
:10006000070200080702000807020008070200084C
:10007000070200080702000807020008070200083C
:10008000070200080702000807020008070200082C
:10009000070200080702000807020008070200081C
:1000A000070200080702000807020008070200080C
:1000B00007020008290E00080702000807020008CE
:1000C00007020008070200080702000807020008EC
:1000D0000702000829100008B110000807020008F4
:1000E00007020008070200080702000807020008CC
:1000F00007020008070200080702000807020008BC
:1001000007020008070200080702000807020008AB
:10011000070200080702000807020008070200089B
:10012000070200080702000807020008070200088B
:1001300000F002F800F03AF80AA090E8000C8244BF
:100140008344AAF10107DA4501D100F02FF8AFF29C
:10015000090EBAE80F0013F0010F18BFFB1A43F0A5
:1001600001031847C4230000E4230000103A24BF11
:1001700078C878C1FAD8520724BF30C830C144BF0C
:1001800004680C607047000000230024002500264E
:10019000103A28BF78C1FBD8520728BF30C148BFEA
:1001A0000B6070471FB51FBD10B510BD00F00DF9F5
:1001B0001146FFF7F7FF01F0DFFC00F02BF903B465
:1001C000FFF7F2FF03BC01F076F80000EFF30980BF
:1001D000704780F309887047EFF30880704780F319
:1001E0000888704740BA7047C0BA704709488047CE
:1001F00009480047FEE7FEE7FEE7FEE7FEE7FEE709
:10020000FEE7FEE7FEE7FEE704480549054A064B20
:1002100070470000C90D000831010008880E002059
:10022000881400208810002088100020704740EAC1
:10023000010310B59B070FD1042A0DD310C808C9BC
:10024000121F9C42F8D020BA19BA884201D9012065
:1002500010BD4FF0FF3010BD1AB1D30703D0521CB0
:1002600007E0002010BD10F8013B11F8014B1B1BEB
:1002700007D110F8013B11F8014B1B1B01D1921E55
:10028000F1D1184610BD032A40F2308010F0030C63
:1002900000F0158011F8013BBCF1020F624498BFD9
:1002A00011F801CB00F8013B38BF11F8013BA2F176
:1002B000040298BF00F801CB38BF00F8013B11F0F1
:1002C000030300F02580083AC0F0088051F8043B91
:1002D000083A51F804CBA0E80810F5E7121D5CBFFE
:1002E00051F8043B40F8043BAFF30080D20724BF31
:1002F00011F8013B11F801CB48BF11F8012B24BFC5
:1003000000F8013B00F801CB48BF00F8012B704713
:1003100010B5203AC0F00B80B1E81850203AA0E8A0
:100320001850B1E81850A0E81850BFF4F5AF5FEAD4
:10033000027C24BFB1E81850A0E8185044BF18C987
:1003400018C0BDE810405FEA827C24BF51F8043B2E
:1003500040F8043B08BF7047D20728BF31F8023B82
:1003600048BF11F8012B28BF20F8023B48BF00F816
:10037000012B70474FF0000200B513469446964695
:10038000203922BFA0E80C50A0E80C50B1F12001A8
:10039000BFF4F7AF090728BFA0E80C5048BF0CC056
:1003A0005DF804EB890028BF40F8042B08BF7047B4
:1003B00048BF20F8022B11F0804F18BF00F8012B26
:1003C00070477047704770477047754600F02CF8CB
:1003D000AE4605006946534620F00700854618B032
:1003E00020B5FFF711FFBDE820404FF000064FF0A9
:1003F00000074FF000084FF0000B21F00701AC465A
:10040000ACE8C009ACE8C009ACE8C009ACE8C00978
:100410008D46704710B50446AFF300802046BDE816
:100420001040FFF7CCBE000000487047280E0020A7
:1004300000BFFEE77047000030B5044604254FF4C6
:10044000302000F0BFF80546042D17D10C48006994
:1004500040F002000A49086108464461006940F022
:10046000400008614FF4302000F0ACF80546044825
:10047000006941F6FD71084001490861284630BD18
:100480000020024004200B49C96801F0010109B1B4
:1004900001200EE00749C96801F0040109B10220FA
:1004A00007E00449C96801F0100109B1032000E028
:1004B00004207047002002400348006940F080009B
:1004C00001490861704700000020024005490968A1
:1004D00021F01001034A11601146096801431160BF
:1004E000704700000020024070B504460D46042607
:1004F000F00200F067F80646042E11D109480069A1
:1005000040F00100074908612580F00200F05AF828
:1005100006460448006941F6FE7108400149086139
:10052000304670BD0020024078B506460C460425D2
:1005300000200090E80200F045F80546042D24D183
:100540001348006940F00100114908613480E80255
:1005500000F038F80546042D10D1B01C0090200C96
:1005600000990880E80200F02DF805460848006967
:1005700041F6FE7108400649086106E0044800693A
:1005800041F6FE71084002490861284678BD000026
:100590000020024001460020034A106800F03800A5
:1005A00008431060704700000020024002480349E1
:1005B00048600348486070472301674500200240B7
:1005C000AB89EFCD00B502460423FFF75BFF03467E
:1005D00003E0FFF757FF0346521E012B01D1002A0B
:1005E000F7D102B90523184600BD2DE9F0410246B6
:1005F00000250026002000230024002791F803C0D6
:100600000CF00F0591F803C00CF0100CBCF1000FBA
:1006100003D091F802C04CEA050591F800C0BCF186
:10062000000F31D0146800202BE04FF0010C0CFAC1
:1006300000F3B1F800C00CEA03069E4220D183000B
:100640004FF00F0C0CFA03F7BC4305FA03FC4CEA1D
:10065000040491F803C0BCF1280F06D14FF0010C3F
:100660000CFA00FCC2F814C00AE091F803C0BCF117
:10067000480F05D14FF0010C0CFA00FCC2F810C075
:10068000401C0828D1D31460B1F800C0BCF1FF0FA2
:1006900034DD546800202EE000F1080C4FF0010812
:1006A00008FA0CF3B1F800C00CEA03069E4221D10F
:1006B00083004FF00F0C0CFA03F7BC4305FA03FC60
:1006C0004CEA040491F803C0BCF1280F05D100F1F5
:1006D000080C08FA0CF8C2F8148091F803C0BCF1B9
:1006E000480F07D100F1080C4FF0010808FA0CF888
:1006F000C2F81080401C0828CED35460BDE8F081B9
:1007000041617047016170471CB5044600200190AB
:10071000009000F0A5F84FF4803000F063F900F08D
:10072000BFF900900098012828D11020FFF7CEFED5
:100730000220FFF72FFF002000F048F9002000F012
:1007400083F94FF4806000F073F921464FF4803054
:1007500000F08CF9012000F083F900BF392000F08F
:100760000FF90028FAD0022000F08EF900F0DAFA32
:1007700000BF00F023F90828FBD101E000BFFEE72D
:100780001CBD00BFFEE700BFFEE7704770B500214B
:1007900000230F22C47804B3154C246804F4E064E9
:1007A000C4F5E064210AC1F10403CA40447804FAA4
:1007B00003F184781440214309010E4C0678A155B9
:1007C000047804F01F050124AC4005786D11AD00DC
:1007D00005F1E025C5F8004109E0047804F01F05A3
:1007E0000124AC40044D0678761145F8264070BDD2
:1007F0000CED00E000E400E080E100E07047000064
:1008000029B1064AD2690243044BDA6104E0034A83
:10081000D2698243014BDA61704700000010024048
:1008200029B1064A12690243044B1A6104E0034AE3
:1008300012698243014B1A617047000000100240A8
:1008400029B1064A92690243044B9A6104E0034AC3
:1008500092698243014B9A61704700000010024088
:100860000F48006840F001000D49086008464068E4
:100870000C4908400A494860084600680A4908408F
:10088000074908600846006820F480200860084690
:10089000406820F4FE0048604FF41F0088607047F5
:1008A000001002400000FFF8FFFFF6FE30B5002107
:1008B0000022002400232D4D6D6805F00C0121B1AC
:1008C000042905D0082923D105E0294D056022E03F
:1008D000274D05601FE0254D6D6805F47012234D0E
:1008E0006D6805F48034022505EB92421CB9214D58
:1008F000554305600BE01D4D6D6805F400351DB1D5
:100900001C4D5543056002E0194D5543056002E05A
:10091000174D056000BF00BF144D6D6805F0F00174
:100920000909154D6B5C0568DD4045600F4D6D682C
:1009300005F4E061090A104D6B5C4568DD40856097
:100940000A4D6D6805F46051C90A0B4D6B5C456832
:10095000DD40C560054D6D6805F44041890B074DCC
:100960006B5CC568B5FBF3F5056130BD0010024056
:1009700000127A0000093D003E0000204E000020D9
:1009800010B501460022002300204A11012A02D19D
:10099000094C236806E0022A02D1074C236A01E0D1
:1009A000054C636A01F01F02012494401C400CB105
:1009B000012000E0002010BD001002400248406805
:1009C00000F00C00704700000010024001460020BB
:1009D000034A506820F0F000084350607047000060
:1009E000001002401149096821F480310F4A11605A
:1009F0001146096821F480211160B0F5803F03D0D1
:100A0000B0F5802F0ED106E00849096841F4803125
:100A1000064A116007E00549096841F4A021034A2C
:100A2000116000E000BF00BF7047000000100240EE
:100A300001460020034A506820F4E06008435060FB
:100A4000704700000010024001460020034A506831
:100A500020F4605040EAC10050607047001002402E
:100A6000014908667047000000004242024600202B
:100A7000044B586820F47C1042EA01031843014BF0
:100A8000586070470010024001460020034A506839
:100A900020F003000843506070470000001002403F
:100AA00038B5002000900024002500BF3120FFF75A
:100AB00067FF05460098401C00904FF6FF710098B4
:100AC000884201D0002DF1D03120FFF759FF08B145
:100AD000012400E00024204638BD000010B586B097
:100AE000044601214804FFF78BFE01210C20FFF78B
:100AF000A7FE0420ADF8140010208DF81700032085
:100B00008DF8160005A92748FFF76FFD0420ADF802
:100B1000140018208DF8170005A92348FFF765FD7C
:100B20000820ADF8140004208DF8170005A91E4810
:100B3000FFF75BFD01214804FFF772FE00214FF42F
:100B40000030FFF76DFE01940020ADF80800ADF80D
:100B50000A00ADF80C00ADF810000C20ADF80E0046
:100B600001A9124800F030FB26208DF80000022079
:100B70008DF8010001208DF802008DF80300684611
:100B8000FFF704FE012240F22551084800F0F7FA71
:100B90000121064800F0B0FA04210248FFF7B0FD39
:100BA00006B010BD000C01400008014000440040A8
:100BB00070B505460E4604211148FFF7A3FD002439
:100BC0000CE000BF40210F4800F0A2FA0028F9D045
:100BD000295D0C4800F069FB601CC4B2B442F0DB34
:100BE00000BF4021074800F093FA0028F9D0002008
:100BF0000549087004210248FFF782FD70BD00001E
:100C0000000C01400044004014000020704710B563
:100C100000F002F810BD00000CB50020019000901B
:100C20003348006840F480303149086000BF3048E4
:100C3000006800F4003000900198401C019000987A
:100C400020B94FF6FF7101988842F0D1284800681A
:100C500000F4003010B10120009001E0002000906D
:100C60000098012843D12348006840F01000214932
:100C700008600846006820F0030008600846006825
:100C800040F0020008601A48406819494860084668
:100C9000406848600846406840F480604860084604
:100CA000406820F47C1048600846406840F4E81032
:100CB00048600846006840F08070086000BF0C483B
:100CC000006800F000700028F9D00948406820F062
:100CD0000300074948600846406840F00200486049
:100CE00000BF0348406800F00C000828F9D10CBD93
:100CF0000010024000200240042808D14FF0E021FB
:100D0000096941F004014FF0E022116107E04FF062
:100D1000E021096921F004014FF0E02211617047E0
:100D20007047000010B5002100200022214B5B68B5
:100D300003F00C0121B1042906D0082928D107E0CD
:100D40001D4B1E4C236027E01B4B1C4C236023E0F3
:100D5000184B5B6803F47010164B5B6803F4803229
:100D6000022303EB904022B9154B4343134C2360FD
:100D70000DE0104B5B6803F4003323B1104B434389
:100D80000E4C236003E00C4B43430C4C236003E008
:100D9000094B0A4C236000BF00BF064B5B68C3F3DE
:100DA0000313084CE15C054B1B68CB40034C2360EC
:100DB00010BD00000010024000127A000000002068
:100DC00000093D000400002010B51348006840F001
:100DD00001001149086008464068104908400E4962
:100DE0004860084600680E4908400B4908600846FC
:100DF000006820F4802008600846406820F4FE0067
:100E000048604FF41F008860FFF701FF4FF000605B
:100E10000449086010BD0000001002400000FFF807
:100E2000FFFFF6FE08ED00E008B501213B4800F0A9
:100E30008EF8012870D10121384800F079F800219E
:100E4000364800F078F83BE03548B0F84C0448B933
:100E50009DF8000000F08AFD3249088008460088AD
:100E600000B92DE02E48B0F84C0440F24C418842C5
:100E70000AD301F029FA00202949A1F84C04294994
:100E80000880294908701BE09DF800102448B0F83C
:100E90004C24B0F84C04401C214BA3F84C041846D9
:100EA0008154B0F84C041F490988884207D118467C
:100EB00001F012FA00201B4908801B49087000BF8E
:100EC00069461A4801F0ECF80028BDD11448B0F882
:100ED0004C04C0B11248B0F84C0412490988884249
:100EE0001ADA11480078401CC0B20F4908700A286D
:100EF0000AD301F0E9F900200949A1F84C04094995
:100F000008800949087007E000200449243108805E
:100F10000121024800F00FF808BD00000004004065
:100F2000540000203000002032000020A4040020E3
:100F3000CA430282704721B1028842F00102028056
:100F400004E002884FF6FE731A400280704730B505
:100F50000246002000230024158A05EA0103958932
:100F600005EA010413B10CB1012000E0002030BDFE
:100F70001AB183890B43838102E083898B43838188
:100F800070470000002202881D4B98420ED01D4B76
:100F900098420BD0B0F1804F08D01B4B984205D03F
:100FA0001A4B984202D01A4B984204D14FF68F73D5
:100FB0001A404B881A43174B984207D0164B984259
:100FC00004D04FF6FF431A40CB881A4302808B8827
:100FD00083850B8803850A4B98420BD0094B9842B6
:100FE00008D00E4B984205D00D4B984202D00D4BC5
:100FF000984201D10B7A0386012383827047000057
:10100000002C014000340140000400400008004072
:10101000000C00400010004000140040004001405F
:10102000004401400048014010B540F225511D48E0
:1010300000F07BF810B31B4800F032F9C4B21A4834
:10104000008800F40040C8B91748008800F48040C8
:1010500060B10A2C03D000201349088020E0124818
:10106000008840F400401049088019E00D2C06D19A
:101070000D48008840F480400B49088010E00A4881
:101080000088C0F30D0009490C5407480088401C33
:101090000549088008460088C72801DD002008802F
:1010A00010BD0000003801403C000020600D002011
:1010B00010B540F225510C4800F037F850B10A48FD
:1010C00000F0EEF8C4B22146084800F0CBFF002043
:1010D0000749087000200749088001210548243885
:1010E000FFF729FF10BD000000440040A4040020C9
:1010F000320000202404004021B1828942F40052D1
:10110000828104E082894DF6FF731A408281704724
:1011100002460020B1F5007F00D100BF13880B40CC
:101120000BB1012000E00020704770B5024600249A
:1011300000230025002040F66A16B14200D100BF0E
:10114000C1F3421501F01F03012606FA03F3012D36
:1011500002D19689334006E0022D02D1168A33402F
:1011600001E0968A33400C12012606FA04F4168830
:10117000344013B10CB1012000E0002070BDF0B587
:101180000346002400260025002040F66A17B942D5
:1011900000D100BF1846C1F3421401F01F06012719
:1011A00007FA06F5012C01D10C3004E0022C01D124
:1011B000103000E014301AB107682F43076002E0D6
:1011C0000768AF430760F0BD2DE9F04786B00546DC
:1011D0000E460024A24600BFA1460027B08900B1F8
:1011E00000BF2F462C8A4CF6FF700440F088044361
:1011F0002C82AC894EF6F3100440B0883189084344
:10120000718908430443AC81AC8A4FF6FF40044027
:10121000B0890443AC8201A8FFF748FB1F4887420E
:1012200002D1DDF810A001E0DDF80CA0A88900F4DF
:10123000004040B10AEBCA0000EB0A1031684900D7
:10124000B0FBF1F807E00AEBCA0000EB0A103168C6
:101250008900B0FBF1F86420B8FBF0F0040120092C
:10126000642101FB1089A88900F4004040B13220BC
:1012700000EBC900B0FBF1F000F00700044308E008
:10128000322000EB09106421B0FBF1F000F00F00F8
:1012900004432C8106B0BDE8F0870000003801400F
:1012A00001468888C0F308007047C1F308028280B5
:1012B000704700BFFEE700BF7047000010B504464E
:1012C0000CB1E06808B9002010BD0348D4E903124E
:1012D00000F0F0F8F8E700000050000810B50446F0
:1012E0000CB1606908B9002010BDD4E9050100F017
:1012F0004BF8F9E710B58AB00446204600F06CFBC5
:1013000020B16946E01C00F02FFE20B900F0DCFFA0
:1013100000200AB010BD01A800F0FCF818B1174970
:101320000398884203D000F0CFFF0020F1E7069831
:1013300040B1DDE9060100F027F818B900F0C4FF5C
:101340000020E6E715210E4800F05CFD18B900F01A
:10135000BBFF0020DDE70A480A4948600098886022
:101360000020C8600120087448700320087000F055
:1013700079FF00F07FFF0120CBE700000424571322
:1013800000500008180000202DE9F04104460D46E9
:10139000082C03D345F2FC30844202D90020BDE87A
:1013A000F0810E480668001D0768304600F0E8FE30
:1013B00030B10B4822180146384600F0C1FE08B98A
:1013C0000020ECE7681C38B12146044800F054F8CE
:1013D000A84201D00020E2E70120E0E700A40008D5
:1013E000005000082DE9F04105460C461F48854293
:1013F00002D01F48854207D11C48844202D01C48B5
:10140000844201D1A54202D10020BDE8F08115211E
:10141000204600F0F7FC08B90020F6E700264FF45C
:10142000A8471FE0B7F5806F02D94FF4806000E055
:1014300038468046A81942460E4900F015FDA0190D
:1014400042460C4900F01CFD08B90020DDE7A01958
:1014500042460849FEF7EBFE08B10020D5E74644B6
:10146000A7EB0807002FDDD10120CEE700500008D0
:1014700000A400086009002070B503460C464FF038
:10148000FF31002210E09E5C7140002509E001F070
:10149000010018B1064880EA510100E04908681CC3
:1014A000C5B2082DF3DB521CA242ECD3C84370BD79
:1014B0002083B8ED2DE9F04704460D461646144842
:1014C000844205D1082D03D345F2FC30854202D970
:1014D0000020BDE8F08704EB05092768D4F80480F4
:1014E000384600F04DFE28B14A462146404600F0FD
:1014F00027FE08B90020ECE7701C38B129462046C9
:10150000FFF7BAFFB04201D00020E2E70120E0E798
:101510000050000870B592B0064616B9002012B00F
:1015200070BD09A9174800F0DDFC0446694616485D
:1015300000F0D8FC054624B91DB9304600F0C8FAC1
:10154000EDE78CB185B10A99019800F00BFE28B146
:10155000242269463046FEF7DBFE11E0242209A969
:101560003046FEF7D5FE0BE02CB1242209A9304607
:10157000FEF7CEFE04E0242269463046FEF7C8FEA0
:101580000120CCE700400008004400082DE9F04F9E
:101590009DB0044674B1A06800F0D0FC50B145F293
:1015A000FC31E068884205D86069884202D8E06969
:1015B000032803D900201DB0BDE8F08F14A93C48D2
:1015C00000F090FC81460BA93A4800F08BFC824663
:1015D000B9F1000F07D1BAF1000F04D1002501269F
:1015E000DFF8CC8027E0B9F1000F16D0BAF1000F78
:1015F00013D015990C9800F0B5FD18B12D4D0C982D
:10160000461C02E02A4D1598461C2948854201D106
:10161000284800E0264880460DE0B9F1000F05D0CB
:10162000234D1598461CDFF88C8004E0214D0C9862
:10163000461CDFF87C802048206066602021204620
:1016400000F0C8F82062FEF7B1FF4046FEF7F4FE56
:101650008346BBF1040F03D0FEF72EFF0020AAE75C
:10166000019400270FE0019A52F8271008EB870039
:10167000FEF75AFF8346BBF1040F03D0FEF71CFFB1
:10168000002098E77F1C092FEDD3FEF715FF02A974
:10169000404600F027FC08B900208CE724222146B0
:1016A00002A8FEF7C4FD08B9012084E7002082E704
:1016B00000400008004400084154454D10B5044660
:1016C00034B1606920B1D4E90501FFF75DFE08B9C6
:1016D000002010BD09490A48FFF784FE08B9002020
:1016E000F7E76069E060A06920610648A06000201B
:1016F000E0612046FFF74AFFEBE7000000500008DA
:1017000000A400080124571310B572B60021184830
:10171000FFF711FC002201211548FFF729FC0022E8
:1017200040F225511348FFF72AFD00211148FFF729
:10173000E3FC002240F225510F48FFF720FD002076
:101740004FF0E021086148618861002409E04FF012
:10175000FF310A4840F82410094840F82410601C62
:10176000C4B2082CF3DB00200649086010BD00005D
:1017700000040040004400400038014080E100E0E7
:1017800080E200E008ED00E030B503460C460BB9FE
:10179000002030BD0021002217E0985C81EA002182
:1017A00000250EE001F4004028B141F2210080EA5A
:1017B000410081B203E04FF6FF7000EA4101681C6E
:1017C000C5B2082DEEDB501C82B2A242E5DB084612
:1017D000DFE7000030B503460C464FF0FF31002232
:1017E00010E0985C4140002509E001F0010018B1CB
:1017F000064880EA510100E04908681CC5B2082D7E
:10180000F3DB521CA242ECD3C84330BD2083B8EDB9
:1018100010B56FF00400FFF76FFA0A4800680A4934
:10182000B0FBF1F0094908700846007800EB400170
:10183000C1EBC0104FF6FF7101EAC00004490880F7
:1018400010BD000000000020404B4C003400002080
:10185000360000200146114A12884A434FF0E02327
:101860005A6100229A611A46126942F001021A6115
:1018700000BF4FF0E022106900F001021AB100F43D
:101880008032002AF5D04FF0E022126922F00102E6
:101890004FF0E0231A6100229A6170473600002061
:1018A00010B54FF0FF3245F2FC310248FFF702FE5F
:1018B00010BD00000050000810B5044624B10548D2
:1018C000A0602046FFF762FE00F01CFE032000F03F
:1018D00051FC10BD0424571310B504460CB9002068
:1018E00010BD2046FFF7FAFC38B12046FFF7E6FCB2
:1018F00018B92046FFF7E2FEF2E72046FFF7DEFCCC
:1019000038B10548A0600020E0612046FFF73EFEA8
:10191000E6E70020E4E700000124571310B5024673
:1019200009B9002010BD0E48824205D30D488242FD
:1019300002D20B4C03460AE00A48824205D30A4809
:10194000824202D2074C034601E00020EAE7A242AD
:1019500002D35018984201D90020E3E70120E1E7C3
:101960000050000800A4000800F8000801461648CE
:10197000407830B101280BD0022818D0032820D19C
:1019800000E000BF012901D1852070470020FCE75D
:10199000012901D18520F8E7022902D140F2054052
:1019A000F3E7042901D10120EFE70020EDE7042946
:1019B00001D10120E9E7012901D18520E5E70020D7
:1019C000E3E70020E1E7000018000020014800786C
:1019D000704700001800002010B504466CB1B4F840
:1019E0004C04852809D12078012806D1607820B9D7
:1019F0006078A1784840FF2801D0002010BD8021E8
:101A0000204600F017FCF9E70246032105E0505C90
:101A100008B100207047481C81B28329F7D3012008
:101A2000F8E70000F0B589B004461848844202D0B7
:101A3000002009B0F0BD6846FFF76CFD08B9002032
:101A4000F7E713490298884205D0091D0298884299
:101A500001D00020EDE72046DDE90312FFF72AFD63
:101A600008B90020E5E72668656805F0010008B9B7
:101A70000020DEE7FFF748FE064804602F463046A8
:101A8000FEF7ADFBB8470120D3E700000050000887
:101A90000124571308ED00E070B504460A4B0FCB44
:101AA00084E80F0009492068884201D0002070BDF9
:101AB0000C212046FFF78EFE0546E068A84201D1C2
:101AC0000120F4E70020F2E7004000085AA5A55ADB
:101AD0001FB504466846FFF7DFFF10B9002004B0C9
:101AE00010BD24212046FEF745FC1F482060002041
:101AF000606045F2FC30E0604FF0FF3201461B4869
:101B0000FFF7D8FC18B90020E060206102E04FF038
:101B1000FF3020611649019888420BD0491C01987A
:101B2000884207D013490198884203D0C91C019804
:101B3000884202D10F48A06013E00D49491E019868
:101B4000884204D00B49491E0198884207D1E068B9
:101B500010B10848401E00E00648A06001E00548BA
:101B6000A0600120BBE700004154454D0050000833
:101B70000255AA55022457138AB0012400274FF0BA
:101B80000008E004FEF7C0FDFFF742FE00F07AFB1C
:101B900001A8FFF7BFFC0646EEB9242101A8FEF715
:101BA000E9FBA21E45F2FC319348FFF783FC38B1F4
:101BB00045F2FC300490A01E05909048039002E08E
:101BC0008E48401C039001A8FFF7E0FC01A8FFF736
:101BD000A1FC064608E0029830B901A8FFF7D6FC40
:101BE00001A8FFF797FC064656B9242101A8FEF785
:101BF000C1FB8248C01C039001A8FFF75DFE8EE088
:101C00007E4949420398084405287DD2DFE800F068
:101C100003313239400001A8FFF750FB20B1012405
:101C2000012000F0A7FA23E0FFF73AFE88B145F261
:101C3000FC3004904FF0FF30059070480390002076
:101C4000089001A8FFF7A2FC0124012000F092FAFD
:101C50000EE001A8FFF740FE20B10124012000F0B2
:101C600089FA05E001A800F0C7F901A8FFF724FEF2
:101C700054E000BF01A800F0BFF901A8FFF71CFE67
:101C80004CE001A800F032FA01A8FFF715FE45E08C
:101C900001A8FFF713FB78B901A8FFF71DFE30B9C3
:101CA0005648C01C039001A8FFF706FE2BE0012454
:101CB000012000F05FFA26E0089803280FD301A85E
:101CC000FFF70AFE20B10124012000F053FA1AE0C8
:101CD0004A48C01C039001A8FFF7EEFD13E00898E6
:101CE000401C089001A8FFF751FC05462DB10124C6
:101CF000012000F03FFA06E006E04048C01C0390D7
:101D000001A8FFF7D9FD09E03C48401C039001A859
:101D100000F072F901A8FFF7CFFD00BF00BF04B9C2
:101D2000012468E0FFF752FE012806D0022811D0F6
:101D3000032834D0042857D14FE04FF47A70FFF7CE
:101D400089FD0CB1601E84B214B9022000F012FAB1
:101D500000274FE02848FFF765FEE8B901A8FFF724
:101D6000D9FB40B101A8FFF7B7FD20B10124012044
:101D700000F000FA12E001A8FFF7CCFB28B11F48E1
:101D8000C01C039001A8FFF701FC00F0BBFB03207F
:101D900000F0F0F9002701E04FF001082AE01848B0
:101DA000407808B900F066FA4FF4FA70FFF752FD78
:101DB000781C87B2C82F0FD301A8FFF7ABFB40B147
:101DC00001A8FFF789FD20B10124012000F0D2F91C
:101DD00002E000F097FB00270CE04FF47A70FFF769
:101DE00039FD00F0DFF905E0B8F1000F01D04FF048
:101DF000000800BF00BF95E70050000801245713FA
:101E0000180000202DE9F04104460D461448844294
:101E100002D01448844202D10DB1152D02D9002000
:101E2000BDE8F08104EB852704F5A840874201D97D
:101E30000020F5E7FEF7BAFB00260BE004EB862056
:101E4000FEF7FAFA042803D0FEF736FB0020E7E796
:101E5000701CC6B2AE42F1DBFEF72EFB0120DFE7BD
:101E60000050000800A4000870B505460C46164650
:101E70002CB126B1324629462046FEF704FA70BD41
:101E80002DE9F04707460E46154646B13DB105F02F
:101E9000010020B929463846FFF740FD10B900205F
:101EA000BDE8F087FEF782FB002414E0315D601C82
:101EB000305C41EA002838194146FEF715FB81469F
:101EC000B9F1040F02D1385B404503D0FEF7F4FAB4
:101ED0000020E5E7A41CAC42E8D3FEF7EDFA0120B0
:101EE000DEE7000070B506460C4624223146204647
:101EF000FEF7C9F91049206888420ED1A06800F0A9
:101F00001DF850B145F2FC31E068884205D860699F
:101F1000884202D8E069032801D9002070BD202141
:101F20002046FFF757FC0546206AA84201D0002052
:101F3000F4E70120F2E700004154454D014609480D
:101F400081420BD0401C814208D0401C814205D008
:101F5000401C814202D0401C814201D101207047C7
:101F60000020FCE70124571370B502460C4602B16D
:101F70000CB9002070BD002101E0481C81B280290D
:101F800002D2505C0028F8D1802901D30020F1E76B
:101F9000481C81B201E0481C81B2802905D2505C06
:101FA0002028F8D0505C0928F5D0002300250DE04A
:101FB00001251048834201D90020DBE7505C30380E
:101FC00003EB830600EB4603481C81B2802905D24F
:101FD000505C302802DB505C3928E9DD25B11BB1AB
:101FE00045F2FC30834201D90020C3E72360012081
:101FF000C0E700009999991910B504460CB9002062
:1020000010BD2046FFF75AF9A8B11348A06020463A
:10201000FFF7BCFA08B90020F2E710491048FFF7B3
:10202000E1F908B90020EBE7E06860612069A06190
:102030000020E06109E02046FFF750F928B90020B0
:10204000E06020616061A061E0610348401CA06025
:102050002046FFF79BFAD3E70324571300A4000898
:102060000050000810B50246D2F8B804B0F5966FDB
:1020700001DB002010BDD2F8B0041154D2F8B00436
:10208000401C4FF4966390FBF3F403FB1400C2F87A
:10209000B004D2F8B804401CC2F8B8040120E9E743
:1020A00010B50246D2F8B80408B9002010BDD2F825
:1020B000B404105C0870D2F8B404401C4FF496636A
:1020C00090FBF3F403FB1400C2F8B404D2F8B80494
:1020D000401EC2F8B8040120E8E70021C0F8B0149F
:1020E000C0F8B414C0F8B8147047000010B5044626
:1020F0000CB9002010BD2046FFF7E0F890B920464B
:10210000FFF7ECF870B10C490C48FFF76BF908B910
:102110000020EFE76069E060A06920612046FFF7DA
:1021200035FAE7E72046FFF7C9F808B10120E1E7F3
:102130002046FFF7D3F8DDE70050000800A40008B0
:1021400010B503460C4603F0010008B9002010BD8D
:1021500023F00101A14201D3914201D30020F6E70F
:102160000120F4E70246501A002801DD01207047E3
:102170000020FCE7014908707047000018000020AB
:102180000146B1F1005F02D30548814201D9002028
:10219000704701F0030008B10020F9E70120F7E7DC
:1021A00000500020012080F3138800BF00BF0748C3
:1021B000006800F4E06006490843001D0349086018
:1021C000BFF34F8F00BF00BFFEE700000CED00E043
:1021D0000000FA051FB501210220FEF711FB40F2B5
:1021E000E730ADF808004720ADF804000020ADF856
:1021F0000A00ADF8060001A90D48FEF7C3FE012252
:1022000011460B48FEF7B4FE1D208DF8000000209B
:102210008DF8010001208DF802008DF8030068465A
:10222000FEF7B4FA01210248FEF785FE1FBD00004B
:1022300000040040F0B504460D4604B10DB900207D
:10224000F0BD281D215CE81C205C41EA00272946DE
:10225000E01CFFF799FA0646B74201D10120EFE7EB
:102260000020EDE708B50620009001216846FEF742
:102270009FFC08BD08B54320009001216846FEF789
:1022800097FC08BD10B54FF41650FEF727FCFFF77A
:10229000A1FF0848FFF721FF00200749A1F84C04DF
:1022A000064908800649087000F02CF9012005490C
:1022B000087010BDA404002054000020300000204D
:1022C000320000201800002008B5152000900121E0
:1022D0006846FEF76DFC08BD2DE9F04F89B0044655
:1022E00014B1B4F84C0410B909B0BDE8F08F8148BE
:1022F000407803280AD02046FFF76EFB30B1204615
:10230000FEF7F8FF0020A4F84C04EDE72678B4F8B7
:102310004C04012801D9607800E000200746B4F899
:102320004C04022801D9A07800E0002082467148C0
:10233000407830B1012805D002287FD0032876D11B
:1023400086E0D1E0012E01D0022E64D1012E01D110
:10235000802501E04FF48065B4F84C14681D81427B
:1023600008D187EA0A00FF2804D129462046FFF752
:1023700061FF10B9FFF7A8FFB6E05E48007C0128B6
:1023800001D1FF2003E05B48007C401EC0B28346C1
:102390005F4502D1FFF766FFA6E05648007CB842D1
:1023A0000BD15448C06853498968884205D25148C6
:1023B000406828445049884202D9FFF785FF93E0DE
:1023C0004C4880684B49C968A0EB0108A84500D972
:1023D000A84648492A464868E11CFFF751FD10B954
:1023E000FFF772FF80E04348406828444149486055
:1023F0000846C0684044C8600846007CFF2801D1F8
:10240000012003E03B48007C401CC0B239490874FD
:10241000FFF728FF11E0042E0FD13648C068354978
:102420008968884204D0FFF74FFF5DE006E058E07E
:10243000FFF74AFF02202F49487055E0042E06D1CD
:10244000FFF710FFFFF716FF03202A4948704BE003
:10245000012E43D1B4F84C0485283FD1AFBB87EAA5
:102460000A00FF283AD180212046FFF7E3FE60B33F
:102470002046FFF7C9FA40B31E4881681F48FEF79F
:10248000FBFF81461B484A4681681C48FFF712F84B
:1024900038B16846FFF73EF818B1194902988842EA
:1024A00002D0FFF711FF1FE0124880680390CDF8BB
:1024B0001090002007901248401C02906846FFF7D9
:1024C00065F818B9FFF700FF0EE007E0FFF7CAFE56
:1024D0000020084948700420087001E0FFF7F4FE6E
:1024E00002E000F00FF800BF00BF0020A4F84C0489
:1024F00000BFF9E61800002000A400080050000802
:102500000424571300200649487088700548486025
:1025100000208860C860012008740020487470475B
:102520001800002000500008482500080000002086
:10253000540000006C0100089C2500085400002095
:10254000341400008801000800A24A0400000000C2
:102550000000000001020304060708090000000053
:102560000100000000500008000000000000000012
:10257000010000000000000000000000000000005A
:10258000000000000000000000000102030401023E
:0C25900003040607080902040608000006
:04000005080001ED01
:00000001FF
