:020000040800F2
:1000000080100020F5010008630900085B09000862
:100010005F090008D90500084B1400080000000023
:10002000000000000000000000000000050E0008B5
:100030000D06000800000000D5090008190F00088F
:100040000F0200080F0200080F0200080F0200084C
:100050000F0200080F0200080F0200080F0200083C
:100060000F0200080F0200080F0200080F0200082C
:100070000F0200080F0200080F0200080F0200081C
:100080000F0200080F0200080F0200080F0200080C
:100090000F0200080F0200080F0200080F020008FC
:1000A0000F0200080F0200080F0200080F020008EC
:1000B0000F020008211000080F0200080F020008BC
:1000C0000F0200080F0200080F0200080F020008CC
:1000D0000F0200088D110008151200080F02000819
:1000E0000F0200080F0200080F0200080F020008AC
:1000F0000F0200080F0200080F0200080F0200089C
:100100000F0200080F0200080F0200080F0200088B
:100110000F0200080F0200080F0200080F0200087B
:100120000F0200080F0200080F0200080F0200086B
:1001300000F002F800F03FF80AA090E8000C8244BA
:100140008344AAF10107DA4501D100F034F8AFF297
:10015000090EBAE80F0013F0010F18BFFB1A43F0A5
:1001600001031847FC1F00001C200000103A24BFA8
:1001700078C878C1FAD8520724BF30C830C144BF0C
:1001800004680C607047000000230024002500264E
:10019000103A28BF78C1FBD8520728BF30C148BFEA
:1001A0000B607047782900F08380002070471FB5EE
:1001B0001FBD10B510BD00F0DCF91146FFF7F7FFC9
:1001C00001F0DCFA00F0FAF903B4FFF7F2FF03BC28
:1001D00001F05DF9EFF30980704780F309887047FB
:1001E000EFF30880704780F30888704740BA704783
:1001F000C0BA70470948804709480047FEE7FEE754
:10020000FEE7FEE7FEE7FEE7FEE7FEE7FEE7FEE7C6
:1002100004480549054A064B70470000C10F000815
:1002200031010008800A002080100020800C00208E
:10023000800C0020704700000FB41CB5074B06AAC5
:100240007B4469460090059800F07BF900206946E0
:1002500000F08AF91CBC5DF814FB000025030000C7
:1002600070B5044685690068C10601D5302600E0F6
:100270002026C00707D070BDD4E901213046904741
:10028000206A401C20626D1EF6D570BD70B5044614
:1002900085690078C00707D170BDD4E9012120200D
:1002A0009047206A401C20626D1EF6D570BD00008C
:1002B00070B504460D4621461068AFF300802188D2
:1002C000090502D50F4A7A4402E00E4A7A440E32FA
:1002D000002104F1240305E000F00F060009965DFB
:1002E0005E54491C0028F7D120780023000704D56C
:1002F000702D02D009B1022311322046BDE87040B2
:1003000000F0C1B85A1E00002DE9F05F894604468E
:100310004FF0000ADFF824B1FB44C0F820A02046CB
:10032000E168884700287DD0252806D0D4E901213E
:100330009047206A401C2062F1E700255F46204676
:10034000E16888472028064607DB312E05D2B81918
:1003500010F8200C08B10543F1E7A80701D525F0F6
:100360000405C4F81CA00027C4F818A02A2E09D040
:10037000304601F085F838B304EB8708303EC8F802
:10038000186019E059F8041B204604EB87029161BC
:10039000E1688847012F064618D1E069002820DA75
:1003A00025F020051DE0D8F8180000EB800006EBD2
:1003B00040003038C8F818002046E16888470646F3
:1003C00001F05EF80028EED1012F0AD02E2E08D1C0
:1003D0002046E16888477F1C0646022F45F020052D
:1003E000C4DBA069002803DA404245F00105A061A2
:1003F000E80701D025F01005A6B1A6F141001928A3
:1004000002D8203645F400654A463146204625602C
:100410004D46FFF7C7FE60B1012807D0ED1D25F05E
:10042000070000E007E000F1080978E705F104099A
:1004300075E730467AE7206ABDE8F09F301E00007D
:1004400010B5431C02E010F8011B71B18107FAD10D
:100450004FF0013202C88C1A8C4314EAC211F9D051
:10046000C01A0A0603D0C01E10BDC01A10BD0A046F
:1004700001D0801E10BD0902FCD0401E10BD704787
:100480007047704770472DE9F0470D4699469246F0
:10049000044600F124080168880604D5E06921F0CB
:1004A0001001216000E00120A84201DD471B00E0AF
:1004B0000027A1697A1902EB0900081AA0612078C7
:1004C000C00602D42046FFF7CBFE002608E0D4E9A0
:1004D00001211AF806009047206A401C761C206211
:1004E0004E45F4DB2078C0060AD52046FFF7B8FE5B
:1004F00006E0D4E9012130209047206A401C2062A8
:10050000381EA7F10107F4DC07E0D4E9012118F84F
:1005100005009047206A401C2062281EA5F10105B5
:10052000F3DC2046FFF7B2FE2078000602D5022059
:10053000BDE8F0870120FBE701694A1C02610878E9
:10054000704700B58FB0CDE9013100210591054913
:100550007944CDE9031011466846FFF7D5FE0FB088
:1005600000BD0000E5FFFFFF0A6802F8010B0A600A
:100570007047754600F02CF8AE46050069465346B4
:1005800020F00700854618B020B5FFF741FEBDE812
:1005900020404FF000064FF000074FF000084FF0EA
:1005A000000B21F00701AC46ACE8C009ACE8C0097B
:1005B000ACE8C009ACE8C0098D46704710B50446E8
:1005C000AFF300802046BDE81040FFF7FDBD0000FE
:1005D000004870471C0A002000BFFEE710B5024625
:1005E0000B46002100BF04E052F82100034C2060BC
:1005F000491C9942F8D30148006810BD0030024000
:1006000001200149886070470030024070470000B7
:1006100030B5044604254FF4302000F0BFF80546FD
:10062000042D17D10C48006940F002000A49086106
:1006300008464461006940F0400008614FF43020F2
:1006400000F0ACF805460448006941F6FD71084029
:1006500001490861284630BD0020024004200B49B2
:10066000C96801F0010109B101200EE00749C9681C
:1006700001F0040109B1022007E00449C96801F052
:10068000100109B1032000E004207047002002405F
:100690000348006940F0800001490861704700008C
:1006A000002002400549096821F01001034A116049
:1006B00011460968014311607047000000200240A4
:1006C00070B504460D460426F00200F067F80646B1
:1006D000042E11D10948006940F001000749086162
:1006E0002580F00200F05AF806460448006941F6F9
:1006F000FE71084001490861304670BD002002408B
:1007000078B506460C46042500200090E80200F06B
:1007100045F80546042D24D11348006940F0010036
:10072000114908613480E80200F038F80546042DCC
:1007300010D1B01C0090200C00990880E80200F055
:100740002DF805460848006941F6FE710840064943
:10075000086106E00448006941F6FE71084002495C
:100760000861284678BD00000020024001460020B4
:10077000034A106800F0380008431060704700001A
:10078000002002400248034948600348486070471F
:100790002301674500200240AB89EFCD00B502463A
:1007A0000423FFF75BFF034603E0FFF757FF034611
:1007B000521E012B01D1002AF7D102B90523184698
:1007C00000BD2DE9F041024600250026002000234F
:1007D0000024002791F803C00CF00F0591F803C026
:1007E0000CF0100CBCF1000F03D091F802C04CEAE1
:1007F000050591F800C0BCF1000F31D0146800204D
:100800002BE04FF0010C0CFA00F3B1F800C00CEA39
:1008100003069E4220D183004FF00F0C0CFA03F721
:10082000BC4305FA03FC4CEA040491F803C0BCF194
:10083000280F06D14FF0010C0CFA00FCC2F814C0CE
:100840000AE091F803C0BCF1480F05D14FF0010C4C
:100850000CFA00FCC2F810C0401C0828D1D3146068
:10086000B1F800C0BCF1FF0F34DD546800202EE069
:1008700000F1080C4FF0010808FA0CF3B1F800C0C1
:100880000CEA03069E4221D183004FF00F0C0CFAB4
:1008900003F7BC4305FA03FC4CEA040491F803C0D7
:1008A000BCF1280F05D100F1080C08FA0CF8C2F8C9
:1008B000148091F803C0BCF1480F07D100F1080C77
:1008C0004FF0010808FA0CF8C2F81080401C082804
:1008D000CED35460BDE8F08141617047016170473B
:1008E0001CB5044600200190009000F0B5F84FF4CC
:1008F000803000F073F900F0CFF9009000980128E3
:1009000028D11020FFF7CEFE0220FFF72FFF002096
:1009100000F058F9002000F093F94FF4806000F0E7
:1009200083F921464FF4803000F09CF9012000F05B
:1009300093F900BF392000F01FF90028FAD00220F7
:1009400000F09EF900F0EAFA00BF00F033F9082841
:10095000FBD101E000BFFEE71CBD00BFFEE700BF0A
:10096000FEE7704770B5002100230F22C47804B35E
:10097000154C246804F4E064C4F5E064210AC1F174
:100980000403CA40447804FA03F1847814402143F4
:1009900009010E4C0678A155047804F01F050124C6
:1009A000AC4005786D11AD0005F1E025C5F80041BA
:1009B00009E0047804F01F050124AC40044D0678DA
:1009C000761145F8264070BD0CED00E000E400E033
:1009D00080E100E07047000029B1064A52690243F5
:1009E000044B5A6104E0034A52698243014B5A6145
:1009F000704700000010024029B1064AD269024344
:100A0000044BDA6104E0034AD2698243014BDA61A4
:100A1000704700000010024029B1064A12690243E3
:100A2000044B1A6104E0034A12698243014B1A61C4
:100A3000704700000010024029B1064A9269024343
:100A4000044B9A6104E0034A92698243014B9A6124
:100A500070470000001002400F48006840F001009D
:100A60000D490860084640680C4908400A4948603A
:100A7000084600680A4908400749086008460068B7
:100A800020F4802008600846406820F4FE0048609A
:100A90004FF41F0088607047001002400000FFF80C
:100AA000FFFFF6FE30B500210022002400232D4D6B
:100AB0006D6805F00C0121B1042905D0082923D166
:100AC00005E0294D056022E0274D05601FE0254D1A
:100AD0006D6805F47012234D6D6805F480340225AD
:100AE00005EB92421CB9214D554305600BE01D4DAD
:100AF0006D6805F400351DB11C4D5543056002E0DD
:100B0000194D5543056002E0174D056000BF00BF59
:100B1000144D6D6805F0F0010909154D6B5C056811
:100B2000DD4045600F4D6D6805F4E061090A104D28
:100B30006B5C4568DD4085600A4D6D6805F4605169
:100B4000C90A0B4D6B5C4568DD40C560054D6D689D
:100B500005F44041890B074D6B5CC568B5FBF3F5A7
:100B6000056130BD0010024000127A0000093D000E
:100B7000320000204200002010B501460022002370
:100B800000204A11012A02D1094C236806E0022AFA
:100B900002D1074C236A01E0054C636A01F01F0291
:100BA000012494401C400CB1012000E0002010BD45
:100BB000001002400248406800F00C00704700003E
:100BC0000010024001460020034A506820F0F00067
:100BD0000843506070470000001002401149096846
:100BE00021F480310F4A11601146096821F48021F7
:100BF0001160B0F5803F03D0B0F5802F0ED106E034
:100C00000849096841F48031064A116007E0054946
:100C1000096841F4A021034A116000E000BF00BF51
:100C2000704700000010024001460020034A50684F
:100C300020F4E0600843506070470000001002405C
:100C400001460020034A506820F4605040EAC10089
:100C5000506070470010024001490866704700006C
:100C60000000424202460020044B586820F47C10E9
:100C700042EA01031843014B5860704700100240DC
:100C800001460020034A506820F0030008435060EA
:100C9000704700000010024038B50020009000248A
:100CA000002500BF3120FFF767FF05460098401C74
:100CB00000904FF6FF710098884201D0002DF1D0CE
:100CC0003120FFF759FF08B1012400E0002420463D
:100CD00038BD000010B586B0044601214804FFF776
:100CE0008BFE01210C20FFF7A7FE0420ADF81400B5
:100CF00010208DF8170003208DF8160005A927484D
:100D0000FFF75FFD0420ADF8140018208DF81700E0
:100D100005A92348FFF755FD0820ADF8140004206D
:100D20008DF8170005A91E48FFF74BFD0121480467
:100D3000FFF772FE00214FF40030FFF76DFE0194C3
:100D40000020ADF80800ADF80A00ADF80C00ADF8D1
:100D500010000C20ADF80E0001A9124800F0E0FAD6
:100D600026208DF8000002208DF8010001208DF86A
:100D700002008DF803006846FFF7F4FD012240F2FF
:100D80002551084800F0A7FA0121064800F060FA52
:100D900004210248FFF7A0FD06B010BD000C014081
:100DA000000801400044004070B505460E4604218D
:100DB0001148FFF793FD00240CE000BF40210F48CD
:100DC00000F052FA0028F9D0295D0C4800F019FB18
:100DD000601CC4B2B442F0DB00BF4021074800F001
:100DE00043FA0028F9D00020054908700421024880
:100DF000FFF772FD70BD0000000C01400044004090
:100E000014000020704710B500F002F810BD00007B
:100E10000CB50020019000903348006840F4803009
:100E20003149086000BF3048006800F4003000908D
:100E30000198401C0190009820B94FF6FF7101986D
:100E40008842F0D12848006800F4003010B1012039
:100E5000009001E0002000900098012843D1234831
:100E6000006840F01000214908600846006820F042
:100E7000030008600846006840F0020008601A4855
:100E8000406819494860084640684860084640681C
:100E900040F4806048600846406820F47C10486058
:100EA0000846406840F4E81048600846006840F092
:100EB0008070086000BF0C48006800F000700028D7
:100EC000F9D00948406820F0030007494860084607
:100ED000406840F00200486000BF0348406800F0EE
:100EE0000C000828F9D10CBD00100240002002407F
:100EF000042808D14FF0E021096941F004014FF0C6
:100F0000E022116107E04FF0E021096921F00401BE
:100F10004FF0E022116170477047000010B50021CA
:100F200000200022214B5B6803F00C0121B1042951
:100F300006D0082928D107E01D4B1E4C236027E06E
:100F40001B4B1C4C236023E0184B5B6803F47010B0
:100F5000164B5B6803F48032022303EB904022B906
:100F6000154B4343134C23600DE0104B5B6803F4B7
:100F7000003323B1104B43430E4C236003E00C4B72
:100F800043430C4C236003E0094B0A4C236000BF31
:100F900000BF064B5B68C3F30313084CE15C054BD1
:100FA0001B68CB40034C236010BD000000100240C2
:100FB00000127A000000002000093D00040000201B
:100FC00010B51348006840F0010011490860084658
:100FD0004068104908400E494860084600680E49BC
:100FE00008400B4908600846006820F4802008602B
:100FF0000846406820F4FE0048604FF41F008860F7
:10100000FFF701FF4FF000600449086010BD0000C9
:10101000001002400000FFF8FFFFF6FE08ED00E0C0
:1010200010B50121184800F044F801282BD1012403
:101030000121154800F02EF80021134800F02DF88A
:10104000124800F055FD0446012C1BD10020104928
:10105000A1F84C0400BF0E48B0F84C040C4A8118AB
:101060000A4800F020FD0446012C06D10848B0F8DB
:101070004C04401C0649A1F84C04002CEBD1044858
:1010800000F0EEFE00BF10BD0004004098040020F8
:1010900048000020CA430282704721B1028842F012
:1010A0000102028004E002884FF6FE731A400280BB
:1010B000704730B50246002000230024158A05EA57
:1010C0000103958905EA010413B10CB1012000E088
:1010D000002030BD1AB183890B43838102E08389EC
:1010E0008B43838170470000002202881D4B984289
:1010F0000ED01D4B98420BD0B0F1804F08D01B4B47
:10110000984205D01A4B984202D01A4B984204D10B
:101110004FF68F731A404B881A43174B984207D0EB
:10112000164B984204D04FF6FF431A40CB881A431F
:1011300002808B8883850B8803850A4B98420BD0ED
:10114000094B984208D00E4B984205D00D4B98425F
:1011500002D00D4B984201D10B7A03860123838282
:1011600070470000002C01400034014000040040A2
:1011700000080040000C0040001000400014004037
:1011800000400140004401400048014010B540F2D9
:1011900025511D4800F075F810B31B4800F02CF9DC
:1011A000C4B21A48008800F40040C8B91748008843
:1011B00000F4804060B10A2C03D00020134908805D
:1011C00020E01248008840F400401049088019E0EF
:1011D0000D2C06D10D48008840F480400B49088052
:1011E00010E00A480088C0F30D0009490C54074874
:1011F0000088401C0549088008460088C72801DD92
:101200000020088010BD00000038014030000020A0
:101210005409002010B540F225510A4800F031F879
:1012200038B1084800F0E8F8C4B22146064800F09A
:101230001CFC002005490880012104482438FFF7E0
:101240002CFF10BD004400409804002024040040FE
:1012500021B1828942F40052828104E082894DF6F4
:10126000FF731A408281704702460020B1F5007F6B
:1012700000D100BF13880B400BB1012000E000201B
:10128000704770B50246002400230025002040F678
:101290006A16B14200D100BFC1F3421501F01F032D
:1012A000012606FA03F3012D02D19689334006E0A8
:1012B000022D02D1168A334001E0968A33400C1287
:1012C000012606FA04F41688344013B10CB101204B
:1012D00000E0002070BDF0B5034600240026002584
:1012E000002040F66A17B94200D100BF1846C1F38A
:1012F000421401F01F06012707FA06F5012C01D15F
:101300000C3004E0022C01D1103000E014301AB18E
:1013100007682F43076002E00768AF430760F0BD2E
:101320002DE9F04786B005460E460024A24600BFD0
:10133000A1460027B08900B100BF2F462C8A4CF689
:10134000FF700440F08804432C82AC894EF6F31001
:101350000440B08831890843718908430443AC8153
:10136000AC8A4FF6FF400440B0890443AC8201A828
:10137000FFF798FB1F48874202D1DDF810A001E07B
:10138000DDF80CA0A88900F4004040B10AEBCA00C7
:1013900000EB0A1031684900B0FBF1F807E00AEBF6
:1013A000CA0000EB0A1031688900B0FBF1F8642034
:1013B000B8FBF0F004012009642101FB1089A88921
:1013C00000F4004040B1322000EBC900B0FBF1F066
:1013D00000F00700044308E0322000EB091064210C
:1013E000B0FBF1F000F00F0004432C8106B0BDE823
:1013F000F08700000038014001468888C0F30800EB
:101400007047C1F30802828070472DE9F04105461C
:101410000E46174600240CE000BF40213846FFF777
:1014200023FF0028F9D0295D3846FFF7EAFF601C4A
:1014300084B2B442F0DB00BF40213846FFF714FF0E
:101440000028F9D00020BDE8F08100BFFEE70000D1
:1014500070B504462046FEF7F3FF85B20421064826
:10146000FFF73CFA054A29462046FFF7CEFF042144
:101470000148FFF731FA70BD000C01400044004004
:1014800030380A2801D2012070470020704700BF81
:101490007047000070B5084D42F6FF16012140204C
:1014A000FFF79AFAFFF7ACF831462846FFF796F8AF
:1014B0000446204670BD00000050000830B50346C9
:1014C0004FF0FF311D46002211E0A85C414000248E
:1014D00009E001F0010018B1074880EA510100E07D
:1014E0004908601C84B2082CF3DB501C82B20C2A21
:1014F000EBDBC84330BD00002083B8ED10B572B6F9
:1015000000211848FFF7C9FD002201211548FFF707
:10151000E1FD002240F225511348FFF7DCFE0021D7
:101520001148FFF795FE002240F225510F48FFF7C2
:10153000D2FE00204FF0E02108614861886100245C
:1015400009E04FF0FF310A4840F82410094840F8FC
:101550002410601CC4B2082CF3DB0020064908608C
:1015600010BD00000004004000440040003801406D
:1015700080E100E080E200E008ED00E030B50246E6
:101580000B460020002117E0555C80EA052000246E
:101590000EE000F400452DB141F2210585EA400539
:1015A000A8B203E04FF6FF7505EA4000651CACB237
:1015B000082CEEDB4D1CA9B29942E5DB30BD0000E2
:1015C00010B56FF00400FFF793FC0A4800680A4961
:1015D000B0FBF1F0094908700846007800EB4001C3
:1015E000C1EBC0104FF6FF7101EAC000044908804A
:1015F00010BD000000000020404B4C0028000020DF
:101600002A0000200146114A12884A434FF0E02385
:101610005A6100229A611A46126942F001021A6167
:1016200000BF4FF0E022106900F001021AB100F48F
:101630008032002AF5D04FF0E022126922F0010238
:101640004FF0E0231A6100229A6170472A000020BF
:101650000149087870470000180000202DE9F0418A
:10166000044620681F490840B0F1005F05D01EA065
:10167000FFF7EEFE0020BDE8F08121A0FFF7E8FEB5
:1016800000F03EFA054624498D4201D0681C08B995
:10169000012000E000208046B8F1000F12D01FA00A
:1016A000FFF7D6FE00F0F0FA20B923A0FFF7D0FE36
:1016B0000020E0E728A0FFF7CBFE1748C01E00F08F
:1016C00063FB02E029A0FFF7C3FEFFF717FF666880
:1016D00037460A20FFF796FF2068FEF784FDB847DB
:1016E0000120C8E70000FE2F496E76616C69642016
:1016F000737461636B20706F696E7465720A0000A9
:10170000537461636B20706F696E746572207661CB
:101710006C69640A000000000455AA555665726998
:101720006679696E672061707020696E7465677292
:101730006974792E2E2E0A0041707020696E7465CE
:10174000677269747920636865636B204641494C10
:101750004544210A0000000041707020696E7465E4
:101760006772697479204F4B0A00000046617374F8
:1017700020626F6F74206D6F64650A00002600257B
:101780004FF005084FF40020FFF7AAF800F052FBD5
:101790004FF41650FFF79EFA4FF4E13000F024FAB0
:1017A000FFF70EFF00F060F900F0AAF90746781C79
:1017B00018B94A4800F0E8FA484F484840423844CF
:1017C00020B1012808D0032810D109E04FF001080A
:1017D000012000F0AFF919E0032000F0ABF915E0AB
:1017E0004FF00208012000F0A5F90FE0FEF7CAFF54
:1017F0003B48FEF70DFFFEF74BFF384800F0C4FAF8
:101800004FF00108012000F095F900BF00BF64E02F
:10181000FFF71EFF0446012C06D0022C11D0032C2A
:1018200031D0042C57D149E04FF47A70FFF7EAFE2B
:10183000701C86B2464502DB022000F07BF90025D1
:101840004AE028A0FFF704FE3220FFF7DBFE29481C
:10185000FFF704FF002815D127A0FFF7F9FD33A0FB
:10186000FFF7F6FD4FF4FA60FFF7CCFE35A0FFF767
:10187000EFFD1A48401C00F087FA032000F05AF9E7
:101880000026002528E035B9144800F07DFA00BF95
:1018900033A0FFF7DDFD00F0C5FA4FF4FA70FFF753
:1018A000B1FE681C85B2C82D07DB38A0FFF7D0FD5C
:1018B000012000F03FF9002500260DE03CA0FFF7D5
:1018C000C7FD3FA0FFF7C4FD4FF47A70FFF79AFE03
:1018D00000F042F900E000BF00BF99E70155AA55AA
:1018E000004000087374617274206170702E2E2E97
:1018F0000A00000000500008737461727420617067
:1019000070206661696C65643A2061707020636F55
:1019100072727570746564206F72206E6F742070BF
:10192000726F6772616D6D65640A0000506C65616D
:10193000736520757064617465206669726D776186
:1019400072650A00456E746572696E672075706411
:10195000617465206D6F64652E2E2E0A00000000F4
:10196000E7AD89E5BE85E68EA5E694B6E58D87E709
:10197000BAA7E69687E4BBB628596D6F64656DE536
:101980008D8FE8AEAE290D0A00000000E58D87E7D7
:10199000BAA7E8B685E697B6EFBC81E5B09DE8AF9B
:1019A00095E590AFE58AA84150500D0A000000006F
:1019B00075706461746520737563636573730A0081
:1019C00073797374656D207265626F6F742E2E2E3D
:1019D0000A00000070B506460C462A2C00DD2A24B9
:1019E00006EB84200D49884201D9002070BDFEF726
:1019F000C9FE00250BE006EB8520FEF709FE042852
:101A000003D0FEF745FE0020F0E7681CC5B2A542F2
:101A1000F1DBFEF73DFE0120E8E7000000F80008DA
:101A20002DE9F04707460D4690464FF00009FEF7B6
:101A3000A9FE00240DE0285D2919497800EB01205A
:101A40001FFA80F938194946FEF73AFE0646A01CEF
:101A500084B24445EFD3FEF71BFE042E02D00020D3
:101A6000BDE8F0870120FBE7704710B50246D2F8C9
:101A7000B804B0F5966F01DB002010BDD2F8B004B9
:101A80001154D2F8B004401C4FF4966390FBF3F469
:101A900003FB1400C2F8B004D2F8B804401CC2F82A
:101AA000B8040120E9E710B50246D2F8B80408B935
:101AB000002010BDD2F8B404105C0870D2F8B40451
:101AC000401C4FF4966390FBF3F403FB1400C2F840
:101AD000B404D2F8B804401EC2F8B8040120E8E704
:101AE0000021C0F8B014C0F8B414C0F8B81470479E
:101AF0000146D1F8B80408B1012070470020FCE786
:101B000030B50A4C0A492068884202D04FF0FF30B5
:101B100030BD2046FFF7D2FC0546E068A84202D05F
:101B20004FF0FF30F4E76068F2E700000040000883
:101B30005AA5A55A014908707047000018000020F6
:101B400008B5FFF7A7FC0090042269460148FFF79B
:101B500067FF08BDFCF70008012080F3138800BF71
:101B600000BF0748006800F4E06006490843001D14
:101B700003490860BFF34F8F00BF00BFFEE70000BE
:101B80000CED00E00000FA051FB501210220FEF770
:101B900033FF40F2E730ADF808004720ADF804000D
:101BA0000020ADF80A00ADF8060001A90D48FFF7C6
:101BB0009BFA012211460B48FFF78CFA1D208DF885
:101BC000000000208DF8010001208DF802008DF842
:101BD00003006846FEF7C6FE01210248FFF75DFAE2
:101BE0001FBD00000004004010B586B0044601216E
:101BF00044F20400FEF720FF4FF40070ADF814002B
:101C000003208DF8160018208DF8170005A91C4830
:101C1000FEF7D7FD4FF48060ADF8140004208DF876
:101C2000170005A91648FEF7CCFD25208DF8000009
:101C300003208DF801008DF8020001208DF80300CB
:101C40006846FEF78FFE01940020ADF80800ADF85D
:101C50000A00ADF80C00ADF810000C20ADF80E0035
:101C600001A90848FFF75CFB012240F22551054815
:101C7000FFF731FB01210348FFF7EAFA06B010BD78
:101C8000000801400038014030B591B014480468A4
:101C9000601C28B913A0FFF7DBFB012011B030BD99
:101CA000FFF7F8FB0546224612A101A8FEF7C4FA89
:101CB00001A8FFF7CDFB2A4613A101A8FEF7BCFA45
:101CC00001A8FFF7C5FBAC4204D115A0FFF7C0FB8C
:101CD0000120E3E719A0FFF7BBFB0020DEE70000CF
:101CE000FCF700084E6F204352432073746F7265F7
:101CF000640A000053746F726564204352433A20B3
:101D00003078253038580A0043616C63756C617413
:101D10006564204352433A203078253038580A0011
:101D200043524320766572696669636174696F6EB8
:101D3000205041535345440A0000000043524320C1
:101D4000766572696669636174696F6E20464149A0
:101D50004C45440A00000000F0B504460D4604B1AD
:101D60000DB90020F0BD281D215CE81C205C41EA73
:101D700000272946E01CFFF701FC0646B74201D1C7
:101D80000120EFE70020EDE72DE9FF4106461F485F
:101D900000900196002002906846FFF78FFB0390A9
:101DA000FEF7F0FC1A48FEF733FC0746042F05D077
:101DB000FEF76EFC002004B0BDE8F081E846002488
:101DC0000EE058F82410124A02EB8400FEF798FC4B
:101DD0000746042F03D0FEF75BFC0020EBE7641CF2
:101DE000042CEEDBFEF754FC094D2868009988426C
:101DF00007D168680199884203D1E868039988424D
:101E000001D00020D7E70120D5E700005AA5A55A48
:101E10000040000808B50620009001216846FEF742
:101E2000C3FF08BD08B54320009001216846FEF7B6
:101E3000BBFF08BD10B54FF4E130FEF74BFFFFF7D5
:101E4000A3FE0248FFF74CFE10BD000098040020DE
:101E500008B51520009001216846FEF7A5FF08BDD2
:101E60002DE9F04792B0044625786B48407830B1B0
:101E7000012834D002287DD0032809D1AFE0012DFC
:101E80002CD1B4F84C04852803DA64A0FFF7E0FAFB
:101E9000BBE094F8018094F8029088EA0900FF28DA
:101EA00003D064A0FFF7D4FAAFE005205A490870C8
:101EB0006648486066A0FFF7CBFA574948682A2170
:101EC000FFF788FD66A0FFF7C3FAFFF7A3FFFFF750
:101ED000A9FF51484078401C4F49487095E0012DBA
:101EE00001D0022D61D194F801A0BAF1000F05D103
:101EF00061A0FFF7ADFAFFF78DFF86E0012D01D15C
:101F0000802001E04FF4806006460127B4F84C14AD
:101F1000701D814208DB31462046FFF71DFF074652
:101F200017B959A0FFF794FA002F3BD03A48406800
:101F30003044594988420AD958A0FFF789FA00204D
:101F40003549487004200870FFF782FF5DE0324891
:101F500059A1426802A8FEF76FF902A8FFF778FAC4
:101F60002D484068394988420ED1A0796179CDE980
:101F7000001000E027E02379E27854A102A8FEF7E0
:101F80005BF902A8FFF764FA234932464868E11C6E
:101F9000FFF746FD2048406830441F494860FFF77E
:101FA00039FF01E0FFF754FF0CE0042D07D1FFF7E4
:101FB0004FFF19484078401C1749487002E0002044
:101FC0001549487021E0042D08D1FFF723FFFFF7E2
:101FD00029FF11484078401C0F49487015E0012D39
:101FE00012D1FFF717FF00200B49487040A0FFF700
:101FF0002FFAFFF7A5FD4548FFF7C6FE0420064966
:10200000087043A0FFF724FA00BF00BF0020A4F827
:102010004C0412B0BDE8F08718000020496E7661CC
:102020006C696420596D6F64656D206672616D65C1
:102030000D0A0000496E76616C6964207061636B03
:102040006574206E756D6265720D0A00005000089F
:10205000657261736520666C6173680D0A0000002B
:10206000657261736520666C617368207375636364
:102070006573730D0A000000536B69702070616313
:102080006B657420300A0000435243204641494C9E
:1020900045440D0A0000000000F800084552524F68
:1020A000523A2041646472657373206F766572667C
:1020B0006C6F77210D0A0000577269746520746F88
:1020C000203078253038580A0000000046697273C5
:1020D0007420646174613A202530325820253032F2
:1020E00058202530325820253032580A0000000090
:1020F00043616C63756C6174696E672061707020F8
:102100004352432E2E2E0D0A000000000455AA55FE
:102110005570646174652073756363657373210D15
:102120000A00000030313233343536373839414215
:102130004344454640305800303132333435363729
:1021400038396162636465664030780004000008D5
:10215000000000000000000200010000100000006C
:102160008021000800000020480000006C010008E9
:10217000C82100084800002038100000880100082D
:1021800000A24A0400000000000000000102030455
:1021900006070809000000000100000000500008C8
:1021A000000000000000000000000000000000002F
:1021B00000000000000001020304010203040607FE
:0821C0000809020406080000F2
:04000005080001F5F9
:00000001FF
