:020000040800F2
:105000006007002045510008C1620008CF5B00081E
:10501000415C0008AB5400080D700008000000005F
:105020000000000000000000000000007D69000892
:10503000AD540008000000003D6300085D51000809
:105040005F5100085F5100085F5100085F51000880
:105050005F5100085F5100085F5100085F51000870
:105060005F5100085F5100085F5100085F51000860
:105070005F5100085F5100085F5100085F51000850
:105080005F5100085F5100085F5100085F51000840
:105090005F5100085F5100085F5100085F51000830
:1050A0005F5100085F5100085F5100085F51000820
:1050B0005F510008F96A0008B56B00085F510008ED
:1050C0005F5100085F5100085F5100085F51000800
:1050D0005F5100082D6D0008916D00085F510008B8
:1050E0005F5100085F5100085F5100085F510008E0
:1050F0005F5100085F5100085F5100085F510008D0
:105100005F5100085F5100085F5100085F510008BF
:105110005F5100085F5100085F5100085F510008AF
:105120005F5100085F5100085F5100085F5100089F
:10513000DFF80CD000F088F9004800473D76000801
:10514000600700200648804706480047FEE7FEE764
:10515000FEE7FEE7FEE7FEE7FEE7FEE7FEE7FEE727
:10516000A96A00083151000840EA01039B0703D0F7
:1051700009E008C9121F08C0042AFAD203E011F896
:10518000013B00F8013B521EF9D27047421C10F857
:10519000011B0029FBD1801A704730B5044600205E
:1051A000034600E05B1C934203D2E05CCD5C401BF5
:1051B000F8D030BDF0B480EA0102D40F4200B2EB67
:1051C000410F02D20246084611464A0042D0C30DA2
:1051D000DDB2C1F3C752AD1A202D35DAC1F3160185
:1051E00041F4000204B15242C5F1200602FA06F170
:1051F0002A411044B3EBD05F23D0C4B1012DA0EB02
:10520000C35009DCF0BC4FF0004202EAC352DBB2EB
:1052100000F5000000F0E9B8400000F1807000EBFC
:10522000C350A0F1807040EAD170490009E04908FC
:1052300041EAC071A0EBC35000F50000400800EB4C
:10524000C350F0BC00F0C8B86142012202EB41013A
:10525000001BF6E7F0BC704781F00041AAE780F040
:105260000040A7E780EA010210B502F000434000C9
:1052700022D04A001FD0010E01EB1261C0F356008C
:10528000C2F3560240F4000042F40002A0FB0220E8
:1052900000047F39140400D0401C50EA124001D4AD
:1052A0004000491EC2B20C0604EBD010401C40085E
:1052B000802A02D003E0002010BD20F00100002968
:1052C00000DA0020184310BD30B480EA010202F079
:1052D000004530F0004221F0004013D090B1C30DE2
:1052E000D40DC2F31601C0F31600E41A41F4000114
:1052F00040F400027D34914201D3641C00E0490077
:10530000002C02DA30BC002070474FF4000000236C
:10531000914201D3891A034340084FEA4101F7D172
:1053200051B1914202D14FF0004105E002D24FF05D
:10533000010101E06FF0010103EBC450284430BCCF
:1053400000F04AB896230022114600F04EB820F033
:105350000040C10DC0F3160040F400007F2901DABF
:1053600000207047962903DCC1F19601C8407047C0
:105370009639884070472DE9F05F05460020924637
:105380009B4688460646814640241BE02846414607
:105390004746224600F079F853465A46C01A9141D2
:1053A00010D311461846224600F060F82D1A67EB1C
:1053B00001084F4622460120002100F057F817EB64
:1053C00000094E41201EA4F10104DFDC48463146AD
:1053D0002A464346BDE8F09F0029A8BF7047401CFD
:1053E000490008BF20F00100704710B4B0FA80FCFB
:1053F00000FA0CF050EA010404BF10BC704749B138
:10540000CCF1200421FA04F411FA0CF118BF0121A7
:1054100021430843A3EB0C01CB1D4FEA00614FEA87
:10542000102042BF002010BC704700EBC350104456
:105430000029A4BF10BC7047401C490008BF20F0E1
:10544000010010BC70470000064C074D06E0E06804
:1054500040F0010394E8070098471034AC42F6D3BB
:10546000FFF76AFECC7B0008EC7B0008202A04DBF7
:10547000203A00FA02F1002070479140C2F1200367
:1054800020FA03F3194390407047202A04DB203AA6
:1054900021FA02F00021704721FA02F3D040C2F154
:1054A00020029140084319467047FEE7704700000C
:1054B00070B505464FF43026304600F097F80428C2
:1054C00011D1094C206940F002002061656120691A
:1054D00040F040002061304600F088F8216941F634
:1054E000FD721140216170BD002002400849042076
:1054F000CA68D20701D001207047CA68520701D597
:1055000002207047C968C906FBD503207047000018
:10551000002002400248016941F0800101617047AA
:105520000020024004490A6822F010020A600A685A
:1055300002430A607047000000200240F0B50646B2
:105540004FF400570D46384600F050F804280CD1AF
:10555000064C206940F0010020613580384600F09B
:1055600045F82169BA1E11402161F0BD00200240BA
:105570002DE9F841064600204FF4005700900D46F3
:10558000384600F033F8042816D10C4C206940F05E
:10559000010020613580B846384600F027F8BF1E6C
:1055A000042806D1B61C280C00963080404600F036
:1055B0001DF8216939402161BDE8F88100200240D1
:1055C000034A116801F0380101431160704700007F
:1055D000002002400348024941600349416070478E
:1055E0002301674500200240AB89EFCD00B503469B
:1055F000FFF77CFF02E0FFF779FF5B1E012803D075
:10560000002B00D1052000BD002BF4D1FAE770B5C6
:1056100005464FF6FF7000234AF201040EE0EA5CF3
:1056200050400022C60702D084EA500000E0400843
:10563000521C92B2082AF5D35B1C9BB28B42EED36C
:1056400070BD000010B586B004AB01AA02A903A882
:1056500000F076F888B110A001F0F4FC00231A469F
:105660004FF41651012000F037F9040012D014A0B5
:1056700001F0E8FC204606B010BDBDF91000009016
:10568000BDF904309DF80C1015A0029A01F0DAFC67
:105690000020F0E721A0EBE7466C61736820636FA0
:1056A0006E66696720696E76616C69642C2073612F
:1056B00076696E672064656661756C74730D0A00A7
:1056C0004661696C656420746F207361766520643F
:1056D000656661756C7420636F6E6669670D0A009C
:1056E000466C61736820636F6E666967206C6F61DA
:1056F0006465643A20536C6176653D3078253032BC
:10570000582C20426175643D25642C204F666673D9
:1057100065743D25642F25640D0A000044656661AB
:10572000756C7420636F6E6669672073617665645B
:10573000207375636365737366756C6C790D0A000D
:105740002DE9FE43364C0E460746E1899846A1F501
:10575000B44015465C3801D032A030E08DF800101E
:10576000080A8DF8010020788DF8020060688DF835
:105770000300010A8DF80410010C8DF80510000ECD
:105780008DF8060020898DF80700000A8DF80800C2
:1057900060898DF80900000A8DF80A000B2168461F
:1057A000FFF735FFA28901468A4203D024A001F009
:1057B00049FC27E0217809B1F72903D92CA001F091
:1057C00041FC1FE06068B0F5165F08D0B0F5964F59
:1057D00005D0B0F5E13F02D001462EA0EFE7B4F9C5
:1057E000080040F2CF7200F2E730904207D2B4F9DD
:1057F0000A0010F57A7F02DDB0F57A7F05DB2DA077
:1058000001F020FC0120BDE8FE8339706068306043
:10581000208928806189A8F800100020F3E70000A3
:1058200000F80008466C617368206D616769632049
:105830006572726F723A203078253034580D0A0044
:10584000466C61736820435243206572726F723AEE
:105850002063616C633D3078253034582C2073749C
:105860006F7265643D3078253034580D0A000000B1
:10587000496E76616C69642073746F72656420731D
:105880006C61766520616464726573733A20256487
:105890000D0A0000496E76616C69642073746F7242
:1058A00065642062617564726174653A2025640DD7
:1058B0000A000000496E76616C69642073746F722F
:1058C00065642063616C6962726174696F6E206FD8
:1058D00066667365740D0A002DE9F04788B00D46C1
:1058E000070001D0F72F02D9014644A009E0B5F521
:1058F000165F09D0B5F5964F06D0B5F5E13F03D058
:1059000045A001F09FFB6EE002F2E73040F2CF715C
:10591000884205D213F57A7F02DDB3F57A7F01DB89
:1059200043A05EE045F65C20ADF80E000020ADF827
:105930000C005C208DF810005A208DF811008DF8B5
:105940000070280A8DF81400280C8DF81500280E18
:105950008DF816000195100A8DF818008DF8193091
:10596000180AADF808208DF812708DF81A00ADF8FD
:105970000A308DF813508DF817200B2104A8FFF77B
:1059800046FEADF80C00324CFFF724FE2046FFF730
:105990008FFD0646FFF7BEFD042E01D0012000E07A
:1059A000002008B12BA01CE0A246E8464FF00809F1
:1059B000FFF710FE00240AEB440038F81410FFF73C
:1059C000BDFD0646042803D1641CA4B24C45F2D3A5
:1059D000FFF7A0FD042E01D0012000E0002030B12F
:1059E00022A001F02FFB012008B0BDE8F0872A4675
:1059F000394624A001F026FB0020F5E7496E7661C8
:105A00006C696420736C617665206164647265738F
:105A1000733A2025640D0A00496E76616C69642032
:105A200062617564726174653A2025640D0A000034
:105A3000496E76616C69642063616C69627261743D
:105A4000696F6E206F66667365740D0A0000000052
:105A500000F80008466C6173682065726173652008
:105A60006661696C65640D0A00000000466C617334
:105A700068207772697465206661696C65640D0AD7
:105A800000000000436F6E6669672073617665648D
:105A90003A20536C6176653D3078253032582C20A1
:105AA000426175643D25640D0A000000F0B5CC78B4
:105AB000002204F00F03E40601D58C7823430C7810
:105AC0004FF00F0C14F0FF0F4FF0010E1BD00568C4
:105AD0000E880EFA02F42640A64210D196000CFA67
:105AE00006F725EA070703FA06F5CE783D43282E88
:105AF00002D0482E02D002E0446100E00461521C52
:105B0000082AE5D305600A88FF2A1CD944680022C8
:105B100002F108060EFA06F50E882E40AE420ED1AE
:105B200096000CFA06F7BC4303FA06F7CE783C431E
:105B3000282E00D14561CE78482E00D10561521C37
:105B4000082AE5D34460F0BD0246002092680A426C
:105B500000D00120704741617047016170477CB5FA
:105B6000044600200090019000F00EFC4FF48035B8
:105B7000284600F09DFC00F0E3FC0190012800D0D5
:105B8000FEE71020FFF7CEFC0220FFF719FD0020F2
:105B900000F084FC002000F0AFFC4FF4806000F0C7
:105BA000A1FC2146284600F0B7FC012000F0AEFC25
:105BB000392000F053FC0028FAD0022000F0B6FC97
:105BC00000F03EFF00F062FC0828FBD17CBDFEE740
:105BD00002494CF6CC40086070470000003000409D
:105BE00000F014B870B504460D4645F2555000F06B
:105BF00021F8204600F012F8284600F015F800F0D1
:105C000005F8BDE87040FFF7E3BF000002494AF61F
:105C1000AA20086070470000003000400149486039
:105C20007047000000300040014988607047000064
:105C3000003000400149086070470000003000401B
:105C4000FEE7000070B5094DFF22134605F580768A
:105C500005E010F8014B54402A5D5A40335D491E5F
:105C600089B2F6D243EA022070BD0000CC79000868
:105C700070B5194C94F86900002808D094F86710A2
:105C80000025082904D284F8695084F8675070BD53
:105C9000891E89B2A01CFFF7D5FF0F4A94F8671040
:105CA000521C8A5C615C02EB012189B288420ED1F0
:105CB000A0782278E178904209D1032902D0062900
:105CC00003D004E000F00AF801E000F091F804F8D5
:105CD000675FA57070BD0000400000202DE9FF4106
:105CE000404C94F86700082801D0032112E0607945
:105CF000217900EB012086B2E079A17900EB012047
:105D000005042D0C05D0802E03D2C6F18000A842D8
:105D100006DA022104B00320BDE8F04100F010BA19
:105D20002F2DE2D801AB6A4603A902A8FFF708FDB0
:105D30002D4F0021A0B139857985B98501F026F96B
:105D4000207884F86A00274A0320214682F86B00F5
:105D5000680082F86C0003243B4600200F4617E0E1
:105D6000BDF800003885BDF804007885E5E73118F6
:105D700007EB040C33F81120641C110A8CF86A102C
:105D8000E1B27C18491C84F86A20401CCCB2C0B235
:105D9000A842ECD3134821466A30FFF753FF3A1963
:105DA000010A82F86A10641CE1B27A18491C0F4E8D
:105DB00082F86A00CDB204213046FFF7CEFE0024FF
:105DC00006E0381990F86A0000F0A6F9641CE4B205
:105DD000AC42F6D304B03046BDE8F0410421FFF7F1
:105DE000BABE0000400000208C010020000C0140E1
:105DF0002DE9F05F5B484179027901EB02218CB219
:105E0000C17982790F2C01EB02218DB203D0162CBF
:105E100001D0802C05D3BDE8F05F0221062000F000
:105E20008FB9514F80464F4A27F81450017880F8B7
:105E30006A104C48062105F0FF0980F86B10200A13
:105E400082F86C00104680F86D40280A82F86E00D7
:105E500082F86F9002F16A00FFF7F4FE414A010AEE
:105E6000DFF808B182F8701011464FF0080A81F887
:105E7000710004215846FFF770FE002608EB06006B
:105E800090F86A0000F048F9761CB6B25645F5D392
:105E9000642001F08FFB04215846FFF75CFE142CB0
:105EA00011D0152C0FD0172C28D0182C38D0112C2D
:105EB00055D1A5F59050343851D1FFF7A7FEBDE874
:105EC000F05F01F06FBC28B200F2E73140F2CE7211
:105ED000914244D8142C02D0152C02D002E038850F
:105EE00000E07885B7F92A30B7F9282098F8000043
:105EF000D8F8D010BDE8F05F00F0C6B8002D2ED065
:105F0000F72D2CD888F8009088F80190B7F92A303E
:105F1000B7F928204846D8F8D01000F0B5F813E0BB
:105F2000012D16D0022D17D04FF41654C8F8D040CA
:105F3000B7F92A30B7F9282098F80000214600F078
:105F4000A3F8204600F096F9BDE8F05F642001F068
:105F500031BB4FF49644E9E74FF4E134E6E7BDE89E
:105F6000F09F0000400000208C010020000C014048
:105F70002DE9FF4103AB02AA01A96846FFF7E0FB48
:105F80002D4900274FF41654A1F5A67640B1012003
:105F900030707070C6F8D0400F854F858F851AE03D
:105FA0009DF80000307070700198C6F8D000BDF800
:105FB00008200A85BDF80C204A854FF496428F854B
:105FC000904201D1012504E04FF4E132904202D128
:105FD0000225144600E000254EF6A020C6F8D04069
:105FE000C8833378CB8514480D8614A232216438D7
:105FF00001F038F81048643801F00AF84FF4FA78E4
:10600000404601F0D7FA0C482B4613A23221323811
:1060100001F028F80848323800F0FAFF404601F055
:10602000C9FA204600F0B8F8642001F0C3FA86F8F7
:106030006870BDE8FF8100008C0100204D6F646234
:10604000757320736C617665206164647265737327
:106050003A2025640D0A00004261756420696E646F
:1060600065783A2025642028303D393630302C20A0
:10607000313D31393230302C20323D313135323002
:1060800030290D0A00000000F8B51C4616460F46E0
:106090000546FFF721FC20B1BDE8F8400AA000F05A
:1060A000D1BF0F480021334605704570C0F8D0704D
:1060B00000F5A6703A46068544858185294609A0E3
:1060C000009400F0BFFFF8BD4661696C6564207400
:1060D0006F207361766520636F6E6669670D0A00D5
:1060E00040000020436F6E666967207361766564C7
:1060F0003A20536C6176653D3078253032582C203B
:10610000426175643D25642C204F66667365743D5D
:1061100025642F25640D0A0010B5084C0146204661
:1061200000F012FF4021204600F075FE0028F9D053
:106130002046BDE81040402100F060BE0044004011
:1061400070B5134D40F0800015F84F2BEA76287794
:106150000F48697703216A30FFF774FD010AA977B8
:10616000E8770C4E042130464F3DFFF7F6FC002443
:10617000281990F86A00FFF7CFFF641CE4B2052CE1
:10618000F6D33046BDE870400421FFF7E4BC0000C0
:1061900040000020000C01402DE9F0410121804623
:1061A0004E0486B0304600F0CBF801210C2000F000
:1061B000DFF80424ADF8004010208DF80300032020
:1061C000294D8DF8020069462846FFF76FFCADF8AF
:1061D00000401820254F8DF8030069463846FFF728
:1061E00065FC0820ADF800008DF80340694638468C
:1061F000FFF75CFC0121304600F0AEF8002130468C
:1062000000F0AAF80021ADF80C10ADF808100C2031
:10621000174CADF80A10ADF81010ADF80E00CDF81F
:10622000048001A9204600F035FE26208DF81400D8
:1062300002208DF8150001218DF816108DF8171029
:1062400005A800F03FF8012240F22551204600F059
:1062500008FE0121204600F0D4FD04212846FFF766
:106260007AFC06B0BDE8F081000C01400008014056
:10627000004400407FB5104D04460021284600F040
:10628000C0FD0020ADF80400ADF80600ADF8080030
:10629000ADF80C000C20ADF80A00009469462846C1
:1062A00000F0F8FD0121284600F0ABFD0421034871
:1062B000FFF751FC7FBD000000440040000C01408E
:1062C0007047000030B50F23C27801780125F2B184
:1062D000144A126801F1E02102F4E062C2F5E062C2
:1062E000120AC2F10404D3404278A24084781C40D0
:1062F0001443220181F80024007800F01F018D4032
:106300004009800000F1E020C0F8005130BD01F0EC
:106310001F0085404809800000F1E020C0F880514E
:1063200030BD00000CED00E002490843024908605E
:10633000704700000000FA050CED00E07047000017
:10634000044A0029D16901D0014300E08143D161B1
:106350007047000000100240044A0029116901D072
:10636000014300E0814311617047000000100240CA
:10637000044A0029916901D0014300E08143916101
:1063800070470000001002400C48016841F0010114
:10639000016041680A4A114041600168094A1140A0
:1063A0000160016821F480210160416821F4FE014F
:1063B00041604FF41F0181607047000000100240EF
:1063C0000000FFF8FFFFF6FE30B5204A5168204B71
:1063D00011F00C0103D0042901D0082901D0036079
:1063E00012E05168536801F470114FF0020413F485
:1063F000803F04EB914102D053689B0301D5154BBC
:1064000000E0134B5943016051680F2303EA111157
:10641000114B5C5C0168E14041605468072505EA66
:1064200014241C5D21FA04F48460546805EAD42421
:106430001B5DD940C1605268032303EA9232064BC8
:106440001B1F9A5CB1FBF2F1016130BD00100240EC
:1064500000127A0000093D003000002003460020B1
:106460005909094A01290AD002290AD0516A03F0C0
:106470001F02012393400B4200D001207047116896
:10648000F5E7116AF3E70000001002400248406897
:1064900000F00C007047000000100240034A5168F1
:1064A00021F0F001014351607047000000100240EC
:1064B0000B490A6822F480320A600A6822F48022BA
:1064C0000A60B0F5803F07D0B0F5802F03D108688F
:1064D00040F4A02008607047086840F48030F9E775
:1064E00000100240034A516821F4E0610143516009
:1064F0007047000000100240034A516821F46051C7
:1065000041EAC0005060704700100240014908662F
:106510007047000000004242034B5A68084322F4CF
:106520007C1210435860704700100240034A5168C3
:1065300021F0030101435160704700000010024048
:1065400018B500204FF6FF7400903120FFF786FF4A
:106550000099491C0091A14201D00028F5D03120BA
:10656000FFF77CFF002800D0012018BD70B505465C
:10657000FF20002331240FE0EA5C50400022060691
:1065800002D584EA400000E04000521CD2B2C0B202
:10659000082AF4D35B1CDBB28B42EDD370BD000044
:1065A0002DE9F047144E4FF40067002437600120B6
:1065B00001F01AF8DFF840A00025B946AAF1100A48
:1065C000371506F104086006040E37604946504648
:1065D000FFF7BAFA08B144F00104052001F004F80D
:1065E000C8F80070052000F0FFFF6D1CEDB2082D0B
:1065F000E9D32046BDE8F087100C014070B50A4988
:106600004FF400620D1D08B10A6000E02A604FF4EB
:1066100080640C60052000F0E7FF2C60BDE870404E
:10662000052000F0E1BF0000100C01402DE9F0470B
:10663000104E4FF480670546376000244FF4006920
:10664000A6F104082806484602D5C8F8000000E074
:106650003060C8F80070052000F0C6FF37600520E4
:1066600000F0C2FF6806641C050EE4B2082CE9D3F2
:10667000BDE8F087140C01402DE9F041134E4FF4B2
:1066800000653560052000F0AFFF6C103460052018
:1066900000F0AAFF0D4F2946103F3846FFF754FA85
:1066A00000280AD0361D3560052000F09DFF2946E0
:1066B0003846FFF749FA10B10020BDE8F081346098
:1066C000052000F091FF0120F7E70000100C0140C9
:1066D00070B508484FF40066066004150460052094
:1066E00000F082FF034D2D1F2C60052000F07CFF81
:1066F0002E6070BD140C01402DE9F04115494FF496
:1067000000600024086045100D60124F4FF4FA76C7
:10671000103F804603E0641CA4B2B44205D2414657
:106720003846FFF711FA0028F5D141463846FFF701
:106730000BFA084C241D18B125600020BDE8F0813B
:10674000052000F051FF2560052000F04DFF0120DD
:10675000F4E70000100C014008B501210820FFF704
:1067600007FE4FF44060ADF8000001208DF80200F4
:1067700014208DF8030069460948FFF797F9084887
:106780004FF4806110300160C1140160322000F0CC
:1067900005FF00F0D5F80A2000F000FF08BD00005A
:1067A000000C01402DE9FC415E4C00256078322848
:1067B00001D32570657020785B4E20B1012823D06D
:1067C000022870D12CE0FFF757FFB8B18820FFF7FF
:1067D0002DFFFFF791FF88B12420FFF727FFFFF778
:1067E0008BFF58B10020FFF721FFFFF785FF28B18D
:1067F000FFF76EFF3088606001200FE0FFF768FF51
:106800006078401C607059E030886168401A02D599
:106810004EF660210844142801DB022020707FE03E
:10682000FFF72AFFF0B38920FFF700FFFFF764FFAF
:10683000C0B3FFF7B5FE8DF800000020FFF7DEFEC5
:10684000FFF7AEFE8DF801000020FFF7D7FEFFF73F
:10685000A7FE8DF802000020FFF7D0FEFFF7A0FE94
:106860008DF803000020FFF7C9FEFFF799FE8DF8B1
:1068700004000020FFF7C2FEFFF792FE8DF805002E
:106880000120FFF7BBFEFFF723FF02216846FFF759
:106890006DFE064602210DF10300FFF767FE9DF82D
:1068A000021001E00DE03AE0B14203D19DF805107D
:1068B000814209D06078401C607025700020BDE8DE
:1068C000FC81FFF705FFF5E7BDF80000174E40BA61
:1068D0003080BDF803104FBA7780FEF733FD1449BE
:1068E000FEF7C0FCDFF84C804146FEF7EDFC124994
:1068F000FEF760FC70603846FEF724FD0F4F394606
:10690000FEF7B0FC4146FEF7DFFCB06010F1FF4F30
:1069100001D3B56002E0B84200DDB7606570257054
:106920000120CCE718000020140000208C02002079
:1069300000002F4300FF7F47000034C20000C84220
:1069400010B5FFF799FEA8B18820FFF76FFEFFF79B
:10695000D3FE78B13020FFF769FEFFF7CDFE48B1D6
:10696000A220FFF763FEFFF7C7FE18B1FFF7B0FEE6
:10697000012010BDFFF7ACFE002010BD70470000E5
:106980000CB50023264800930193016841F480313F
:1069900001604FF6FF71026802F400320192009A22
:1069A000521C0092019A12B9009A8A42F3D10168EE
:1069B000890333D5012101911A490A6842F0100276
:1069C0000A600A6822F003020A600A6842F00202C2
:1069D0000A604168416041684160416841F48061FA
:1069E0004160416821F47C114160416841F4E81143
:1069F0004160016841F08071016001688901FCD546
:106A0000416821F003014160416841F002014160A9
:106A10004168C1F381010229FAD10CBD01930CBD7B
:106A200000100240002002404FF0E02104280869D5
:106A300003D020F004000861704740F00400FAE73A
:106A4000154A10B55068154B10F00C01144803D0CE
:106A5000042901D0082901D0036012E0516853686D
:106A600001F470114FF0020413F4803F04EB9141E4
:106A700002D053689B0301D50A4B00E0074B5943F2
:106A800001605168064AC1F30311121D515C02688E
:106A9000CA40026010BD00000010024000127A00DF
:106AA0000000002000093D000F4810B5016841F0CA
:106AB0000101016041680D4A1140416001680C4AC2
:106AC00011400160016821F480210160416821F4D6
:106AD000FE0141604FF41F018160FFF751FF05493E
:106AE0004FF00060086010BD001002400000FFF889
:106AF000FFFFF6FE08ED00E010B5144C0121204622
:106B000000F0B1F800281FD00121204600F09EF8C7
:106B10000F49012291F8680060B191F86600401CAD
:106B2000C0B281F866000C2804D3002081F8680008
:106B300081F86920D1F8E000401CC1F8E000B0F510
:106B40007A7F01DD81F8E42010BD000000040040E0
:106B5000400000207FB50D46044601210220FFF7CA
:106B6000EFFBADF804400020ADF80050104CADF83C
:106B70000200ADF806006946204600F089F80122BF
:106B80001146204600F07BF80121204600F061F814
:106B90001D208DF80C0002208DF80D0003208DF8CB
:106BA0000E0001208DF80F0003A8FFF78BFB7FBDBF
:106BB0000004004010B50B4C0121204600F053F8B2
:106BC00000280ED00121204600F040F806494EF67C
:106BD00060220888401C80B20880904201D30020C7
:106BE000088010BD00080040140000207FB50C464E
:106BF000054601210420FFF7A3FBADF8004000206B
:106C0000ADF80450104CADF80200ADF8060069462E
:106C1000204600F03DF801221146204600F02FF8F2
:106C20000121204600F015F81E208DF80C000220EE
:106C30008DF80D0003208DF80E0001208DF80F0057
:106C400003A8FFF73FFB7FBD00080040C943018256
:106C500070470029018802D041F0010101E021F0D4
:106C600001010180704702460020138A92890B427D
:106C700002EA010202D0002A00D001207047002A57
:106C8000828901D00A4300E08A4382817047000074
:106C900030B502881B4C1C4DA0420DD0A8420BD031
:106CA000B0F1804F08D0194B984205D0184B98424C
:106CB00002D0184B984203D122F070034A881A433D
:106CC000154B984206D0154B984203D022F44073DE
:106CD000CA881A4302808A8882850A880285A0426F
:106CE0000AD0A84208D00E4A904205D00D4A9042E0
:106CF00002D00D4A904201D1097A01860121818298
:106D000030BD0000002C0140003401400004004070
:106D100000080040000C004000100040001400403B
:106D200000400140004401400048014070B5154C4E
:106D300040F22551204600F075F800280ED020467C
:106D400000F0FEF8104AC1B21088030406D44404CF
:106D50004FF0000306D50A2901D0138070BD40F41E
:106D600000400DE00D2909D0C0F30D04074D401C73
:106D700080B229551080C728EFD870BD40F48040FC
:106D8000108070BD003801402400002098020020CF
:106D900010B5184C40F22551204600F043F8012868
:106DA00011D1204600F0CCF8134AC0B292F8691015
:106DB000012908D092F86710002329B1642908D36B
:106DC00002F8673F537010BD5478844201D0002808
:106DD000F9D1094CA41C085592F86700401CC0B2B8
:106DE00082F8670082F866300128ECD182F86800EA
:106DF00010BD00000044004040000020C943018055
:106E000070470029818902D041F4005101E021F44A
:106E10000051818170470246002012880A4200D04A
:106E20000120704770B501F01F0501260024C1F351
:106E3000421306FA05F2012B0FD0022B0FD0838AE2
:106E40004FEA11210088134206FA01F600EA060013
:106E500001D000B10124204670BD8389F0E7038A88
:106E6000EEE710B5C1F3421301F01F040121A14068
:106E7000012B07D0022B07D01430002A026805D05E
:106E80000A4304E00C30F8E71030F6E78A4302606A
:106E900010BD000030B50446008A85B00D464CF6A2
:106EA000FF710840E98801432182A0894EF6F31161
:106EB0000840A9882A8911436A8902431143A181A4
:106EC000A08A4FF6FF410840A9890143A182684684
:106ED000FFF77AFA1948844201D1039800E002983A
:106EE000A189090400EBC00101EB0010296801D55C
:106EF000490000E08900B0FBF1F06422B0FBF2F140
:106F000009010B096FF018056B4300EB8300A3899F
:106F10001D044FF0320306D503EBC000B0FBF2F0C6
:106F200000F0070005E003EB0010B0FBF2F000F00A
:106F30000F000843208105B030BD0000003801403B
:106F40008088C0F308007047C1F308018180704752
:106F50002DE9F04117460D46064600240BE040217E
:106F60003846FFF758FF0028F9D0315D3846FFF763
:106F7000EBFF641CA4B2AC42F1D340213846FFF7CA
:106F80004AFF0028F9D00020BDE8F08170B51C4C04
:106F90001C4E31466068FEF765F9FEF7D8F90546E4
:106FA0003146A068FEF75EF9FEF7D1F916490A8D61
:106FB0002A440A804A8D1044488000208880228814
:106FC0004A8162888A81C881088248828882C88210
:106FD0000883488388834EF6A022CA83A1F5A6724F
:106FE0001378CB85D2F8D020B2F5964F03D0B2F506
:106FF000E13F02D002E0012000E00220088670BDDF
:107000008C020020000020418C010020FEE70000DF
:1070100070B50546FEF7BAF8084E84B20421304632
:10702000FEF79BFD064A21462846FFF791FF3046B2
:10703000BDE870400421FEF78EBD0000000C014049
:10704000004400400FB4054B10B503A9044A029850
:1070500000F030F810BC5DF814FB0000F975000872
:10706000280000200FB41CB50246002007AC002900
:107070000BD0491ECDE90021054B6A4621460698F2
:1070800000F018F8009A002111701CBC5DF814FB88
:107090001775000802E008C8121F08C1002AFAD1BB
:1070A00070477047002001E001C1121F002AFBD188
:1070B000704700002DE9FF4F8DB00F4605460026B2
:1070C00006E025280BD0DDE90F1290476D1C761CD9
:1070D00028780028F5D111B03046BDE8F08F0024A3
:1070E000A246A1460122EC4900E0044315F8013F05
:1070F000203B02FA03F00842F7D128782A2810D062
:107100006FF02F022878A0F13001092914D80AEB7A
:107110008A0102EB410144F0020400EB010A6D1CFC
:10712000F0E701CF5FEA000A03D544F40054CAF146
:10713000000A44F002046D1C28782E2817D115F897
:10714000010F44F004042A280ED06FF02F02287893
:10715000A0F1300109290AD809EB890102EB4101AC
:1071600000EB01096D1CF2E757F8049B6D1C2878B1
:107170006C280FD006DC4C2817D068280DD06A2860
:1071800014D104E0742810D07A280FD10DE044F413
:1071900000140AE044F4801401E044F440146978D7
:1071A000814202D104F580146D1C6D1C2A786E2A70
:1071B0001FD00CDC632A31D004DC002A8BD0582A83
:1071C00011D1A3E0642A68D0692A0CD165E0732A42
:1071D0002ED004DC6F2A73D0702A04D19BE0752A6C
:1071E0006FD0782A6ED01046DDE90F129047761CDA
:1071F00050E1C4F30250022806D0032809D0042825
:1072000001CF09D0066045E101CFF117C0E9006167
:1072100040E101CF06803DE106703BE117F8040B29
:107220008DF8000000208DF80100EB46012003E0FE
:1072300057F804BB4FF0FF3061074FF0000102D454
:107240000DE008F10101884649450FDA8045F8DB79
:107250001BF808100029F4D108E008F10101884664
:107260008142FADB1BF808100029F6D1DDE90F2373
:10727000AAEB08008146214600F036F9304400EBC5
:10728000080604E0DDE90F121BF8010B9047B8F186
:107290000108F7D221464846F7E00A21C4F3025319
:1072A0004FF0000B0891022B04D001CFC117032B24
:1072B00009D00AE0FF1D27F00707F7E8020108E000
:1072C00032E01FE020E000B2C117042B01D140B230
:1072D000C117031E71F1000307DA4FF0000CD0EB69
:1072E0000C006CEB01012D2302E0230504D52B23B8
:1072F0008DF82430012303E0E30701D02023F7E7D2
:10730000984658E00A2110E010210EE010204FF0BE
:10731000000B08900CE010214FF0000B44F0040427
:107320004FF00809089103E008214FF0000B089185
:10733000C4F30253022B04D001CF0021032B06D04B
:1073400006E0FF1D27F00707F7E8020103E080B21F
:10735000042B00D1C0B24FF0000823072BD5702AB0
:1073600007D0DDF820C08CF0100C5CEA0B0C05D0C7
:107370000EE040238DF82430012308E050EA010399
:1073800006D030238DF824308DF82520022398462E
:10739000DDF820C08CF0080C5CEA0B0C0BD150EA35
:1073A000010301D1630706D530238DF824304FF057
:1073B0000108A9F10109582A04D038A20B9208AAA1
:1073C0000A920BE03AA2F9E75B46089AFDF7D3FF71
:1073D0000B9B9B5C0A9A521E0A92137050EA0102A0
:1073E000F2D10A98ADEB000000F1200B600702D546
:1073F00024F4803401E04FF00109D94502DDA9EB06
:107400000B0000E0002000EB0B0141440890AAEBC8
:10741000010AE00306D4DDE90F232146504600F0BF
:1074200063F806444FF0000908E009A911F80900C3
:10743000DDE90F12904709F10109761CC145F4DB23
:10744000E0030CD5DDE90F232146504600F04CF84F
:10745000064404E0DDE90F1230209047761C0899BD
:10746000481E08900029F5DC08E00A980A9900787F
:10747000491C0A91DDE90F129047761CBBF100010F
:10748000ABF1010BF1DC21465046DDE90F2300F0A2
:1074900019F806446D1C1BE609280100303132330F
:1074A0003435363738396162636465660000000040
:1074B000303132333435363738394142434445462A
:1074C000000000002DE9F041044600251E46174645
:1074D000880404D405E039462020B0476D1C641EA2
:1074E000F9D52846BDE8F0812DE9F0410446002594
:1074F0001E469046C80301D5302700E020278804A7
:1075000004D505E041463846B0476D1C641EF9D5E8
:107510002846BDE8F0814A68002A06D00A68531C54
:107520000B6010704868401E4860704770B54FF09F
:10753000FF320024094D0DE0035D5A400023D607B9
:1075400002D085EA520200E052085B1CDBB2082B35
:10755000F5D3641C8C42EFD3D04370BD2083B8EDCB
:1075600010B56FF00400FFF75FFA09480949006899
:10757000B0FBF1F00849C0B200EB40020870C2EB6A
:10758000C0104FF6FF7202EAC000488010BD000034
:1075900000000020404B4C002000002040F24C42F4
:1075A00004E00021491C89B29142FBD3401E80B205
:1075B000F7D270470B49498848434FF0E0214861B2
:1075C00000238B61086940F0010008610869C20767
:1075D00001D0C003FAD5086920F0010008618B6171
:1075E000704700002000002000EB80008006000EA5
:1075F000401EC0B2FCD2704704490A885206FCD52E
:10760000024AC1B2121D11807047000000380140CB
:1076100000B589B0684600F05FF800280AD0064936
:107620000298884206D1001F029000200790684609
:1076300000F024F909B000BD052457132249214860
:10764000086062B64FF40020FEF789FAFFF788FF62
:10765000FFF782F84FF4E13000F0C0F8FDF7F2FFD9
:1076600040F628110620FEF7BDFA4FF4FA70FFF736
:10767000A1FF4FF4A060FEF757FE4FF41650FEF73F
:107680008BFD40F2E7341F212046FFF763FA1F21EC
:107690002046FFF7ABFA0DA0FFF7BAFC6420FFF716
:1076A00089FFFEF765FCFFF7B3FFFEF799FAFFF7D6
:1076B00079F8FEF795FAFEF7DBFA3220FFF77AFF4A
:1076C000F3E700000050000808ED00E06170702052
:1076D00056362E340D0A000030B593B0054601A988
:1076E0000F4800F021F804460AA90E4800F01CF8E3
:1076F00054EA000109D02CB150B102990B98401AFC
:10770000002805DD24220AA904E0002013B030BDC2
:10771000242201A92846FDF727FD0120F6E70000F5
:10772000004000080044000810B50C0020D00146BD
:1077300024222046FDF718FD0E492068884217D103
:10774000A06800F019F898B1E16845F2FC30814278
:107750000ED8616981420BD8E069032808D820213E
:107760002046FFF7E3FE216A884201D1012010BDC7
:10777000002010BD4154454D094988420BD0491C99
:10778000884208D0491C884205D0491C884202D052
:10779000491C884201D10120704700207047000039
:1077A0000124571310B5FEF731FA00F0CDF8002888
:1077B0000FD0FEF72BFA0A20FFF7FCFE72B6054841
:1077C0000168054A01F4E06111430160BFF34F8F86
:1077D000FEE710BD0CED00E00400FA0570B50546AB
:1077E00086B0012144F20400FEF7C2FD4FF40070A0
:1077F000ADF8100003248DF8124018201D4E8DF8AE
:10780000130004A93046FEF751F93015ADF8100009
:1078100004208DF8130004A93046FEF747F925200F
:107820008DF814008DF815408DF8164001208DF864
:10783000170005A8FEF746FD0020ADF80400ADF8DE
:107840000600ADF80800ADF80C000C200A4CADF8AD
:107850000A00009569462046FFF71CFB012240F212
:1078600025512046FFF7FDFA01212046FFF7C9FA0E
:1078700006B070BD0008014000380140F0B59BB073
:10788000060056D0B068FFF777FF002851D02B4D87
:1078900009A92846FFF748FF294F044612A9384690
:1078A000FFF742FF54EA000108D02CB158B10A9901
:1078B0001398401A002803DD139806E0012005E024
:1078C0003D46481C02E00A983D46401C1D49C6E959
:1078D000001020213046FFF729FE3062FEF796F9AE
:1078E00072B6FDF777FE2846FDF7E2FD042803D0C7
:1078F000FDF710FE62B61CE0002405EB840056F88C
:107900002410FDF735FE0428F2D1FEF77FF9641C40
:10791000092CF2D3FDF7FEFD62B669462846FFF753
:1079200003FF002806D0242231466846FDF735FCC7
:1079300010B100201BB0F0BD0120FBE700400008A3
:10794000004400084154454DF0B58DB06846FFF73E
:10795000C3FE002138B11948079102906846FFF72D
:107960008DFF0DB0F0BD164809901648CDE90A010B
:1079700009A80C21FFF7DAFD0C9072B6FDF72AFE7C
:10798000114E3046FDF794FD054604280DD1002424
:1079900009AF06EB840057F82410FDF7E9FD054612
:1079A000042802D1641C042CF3D3FDF7B3FD62B6A6
:1079B000042D01D00020D4E70120D2E70224571380
:1079C0005AA5A55A0255AA550040000800C1814099
:1079D00001C0804101C0804100C1814001C080419F
:1079E00000C1814000C1814001C0804101C080418F
:1079F00000C1814000C1814001C0804100C181407F
:107A000001C0804101C0804100C1814001C080416E
:107A100000C1814000C1814001C0804100C181405E
:107A200001C0804101C0804100C1814000C181404E
:107A300001C0804101C0804100C1814001C080413E
:107A400000C1814000C1814001C0804101C080412E
:107A500000C1814000C1814001C0804100C181401E
:107A600001C0804101C0804100C1814000C181400E
:107A700001C0804101C0804100C1814001C08041FE
:107A800000C1814000C1814001C0804100C18140EE
:107A900001C0804101C0804100C1814001C08041DE
:107AA00000C1814000C1814001C0804101C08041CE
:107AB00000C1814000C1814001C0804100C18140BE
:107AC00001C0804101C0804100C1814000C0C101AE
:107AD000C30302C2C60607C705C5C404CC0C0DCD3E
:107AE0000FCFCE0E0ACACB0BC90908C8D81819D9AE
:107AF0001BDBDA1A1EDEDF1FDD1D1CDC14D4D515DE
:107B0000D71716D6D21213D311D1D010F03031F1CD
:107B100033F3F23236F6F737F53534F43CFCFD3DFD
:107B2000FF3F3EFEFA3A3BFB39F9F83828E8E929ED
:107B3000EB2B2AEAEE2E2FEF2DEDEC2CE42425E59D
:107B400027E7E62622E2E323E12120E0A06061A10D
:107B500063A3A26266A6A767A56564A46CACAD6DBD
:107B6000AF6F6EAEAA6A6BAB69A9A86878B8B9792D
:107B7000BB7B7ABABE7E7FBF7DBDBC7CB47475B55D
:107B800077B7B67672B2B373B17170B0509091514D
:107B90009353529296565797559594549C5C5D9D7D
:107BA0005F9F9E5E5A9A9B5B99595898884849896D
:107BB0004B8B8A4A4E8E8F4F8D4D4C8C448485451D
:107BC000874746868242438341818040EC7B0008A0
:107BD0000000002040000000947000082C7C000889
:107BE0004000002020070000A470000800A24A0402
:107BF000000000000000000001020304060708095D
:107C00000000000000000000000000000000000074
:107C10000000000000000000020406080000000050
:0C7C200001020304010203040607080926
:04000005080051316D
:00000001FF
